:020000040800F2
:1000000000C0002051020008DD2F0008E12F000889
:10001000E52F0008E92F0008ED2F00080000000080
:10002000000000000000000000000000F12F0008A8
:10003000F52F000800000000F92F0008FD2F000830
:10004000ED240008ED240008ED240008ED2400084C
:10005000ED240008ED240008ED240008ED2400083C
:10006000ED240008ED240008ED240008ED2400082C
:10007000ED240008ED240008ED240008ED2400081C
:10008000ED240008ED240008ED240008ED2400080C
:10009000ED240008ED240008ED240008ED240008FC
:1000A000ED240008ED240008ED240008ED240008EC
:1000B000ED240008ED240008ED240008ED240008DC
:1000C000ED240008ED240008ED240008ED240008CC
:1000D000ED240008ED240008ED240008ED240008BC
:1000E00009300008ED240008ED240008ED24000884
:1000F000ED240008ED240008ED240008ED2400089C
:10010000ED240008ED240008ED240008ED2400088B
:10011000ED240008ED240008ED240008ED2400087B
:10012000ED240008000000000000000000000000B6
:1001300000000000000000005FF808F100B583B087
:1001400002F04CF9304B314A1360314A1360314BA5
:10015000314A03E011681960043304322F498B429D
:10016000F8D32A4B1A682E4B9A4204D1284B1A68AE
:100170002C4B9A4200D0FEE7234B2B4A13602B4AAC
:1001800013602B4B02E000221A600433294A934289
:10019000F9D3254B1B6813B9244B1B6803B1FEE749
:1001A00002F028F9694601A802F0F4F8224C234B2A
:1001B0001C1BA410002504E01F4B53F82530984762
:1001C0000135AC42F8DC1E4C1E4B1C1BA410002554
:1001D00004E01B4B53F8253098470135AC42F8DC5E
:1001E0000099019802F0E6FC0546174C174B1C1BC2
:1001F000A41004E0013C144B53F824309847002C21
:10020000F8DC284602F0A2F8BABADECA00000020E4
:100210007800002000000020D83A00087C00002070
:1002200078563412325476987C0000208C020020DC
:100230007C000020900200207C0300087C03000862
:100240007C0300087C0300087C0300087C03000892
:1002500008B5FFF773FF00BF00BEFEE71EF0040FF6
:100260000CBFEFF30880EFF309807146364A104760
:100270002DE9F04182B004468846084B5E6B9F6BC7
:100280009D6A074802F08EF8CDF800803B46324662
:100290002946204602F0B2F800BEFEE700ED00E07D
:1002A000003A000800BEFEE71EF0040F0CBFEFF39B
:1002B0000880EFF309807146244A10472DE9F04188
:1002C00082B004468846084B5E6B9F6B9D6A074868
:1002D00002F068F8CDF800803B46324629462046B9
:1002E00002F08CF800BEFEE700ED00E0103A0008D6
:1002F0001EF0040F0CBFEFF30880EFF30980714686
:10030000134A10472DE9F04182B004468846084B55
:100310005E6B9F6B9D6A074802F044F8CDF8008041
:100320003B4632462946204602F068F800BEFEE70A
:1003300000ED00E01C3A000800BEFEE700BEFEE74C
:1003400000BEFEE77047000071020008BD02000811
:040350000503000899
:10035400D83A0008000000207C000020D83A0008A9
:1003640000000010000000107C000020900200201B
:08037400000000100000001061
:10037C0010B50446074B1B680748A0FB03308009E7
:10038C0000F0A2F8002221464FF0FF3000F050F8A8
:10039C00002010BD0C000020D34D621008B50320C6
:1003AC0000F034F80020FFF7E3FF02F02BFD0020F3
:1003BC0008BD00BF024A136801331360704700BFC9
:1003CC0010010020014B1868704700BF100100207D
:1003DC0010B582B00190FFF7F5FF0446FFF7F2FF6E
:1003EC00001B019B9842F9D302B010BD024A13685E
:1003FC0023F002031360704710E000E0024A136818
:10040C0043F002031360704710E000E0074AD36822
:10041C0023F4E0631B041B0C000200F4E06018439F
:10042C0040F0BF6040F40030D060704700ED00E059
:10043C0030B4164BDB68C3F30223C3F10704042C5E
:10044C0028BF04241D1D062D01D9DD1E00E000254A
:10045C00012303FA04F4013C2140A940AB40013BC9
:10046C001A400A43002806DA00F00F001201D2B23B
:10047C00074B1A5407E01201D2B200F1604000F5AC
:10048C00614080F8002330BC704700BF00ED00E0F5
:10049C0014ED00E0420900F01F00012303FA00F004
:1004AC00014B43F82200704700E100E0430900F0E3
:1004BC001F00012202FA00F02033024A42F8230006
:1004CC00704700BF00E100E00138B0F1807F0AD234
:1004DC00064B5860F021064A82F8231000209860E1
:1004EC0007221A6070470120704700BF10E000E03F
:1004FC0000ED00E0042805D1054A136843F004031D
:10050C0013607047024A136823F0040313607047AA
:10051C0010E000E0704700BF08B5FFF7FBFF08BD17
:10052C00F0B583B00023C2E001249C40224000F0CF
:10053C00BD804D68022D01D0122D10D1DE08083679
:10054C0050F826C003F00705AF000F25BD402CEA7C
:10055C00050E0D69BD404EEA050540F826500568AC
:10056C005F000326BE40F64305EA060E4D6805F013
:10057C000305BD404EEA050505604D6805F1FF3EDB
:10058C00BEF1010F03D9112D01D0122D10D18568A8
:10059C0006EA050ECD68BD404EEA05058560456846
:1005AC0025EA04044D68C5F300159D4025434560BC
:1005BC00C46826408C68BC403443C4604C6814F05A
:1005CC00805F73D03D4C256A45F001052562246A95
:1005DC0004F001040194019C9E08B51C384C54F89D
:1005EC00257003F00304A4000F25A54027EA050796
:1005FC00344DA84219D005F58065A84217D005F5F1
:10060C008065A84215D005F58065A84213D005F584
:10061C008065A84211D005F58065A8420FD005F57C
:10062C008065A8420DD106250CE000250AE00125C5
:10063C0008E0022506E0032504E0042502E0052578
:10064C0000E0072505FA04F43C4302361C4D45F83E
:10065C0026401D4C2568D44305EA04064F6817F460
:10066C00803F01D042EA0506174D2E606D6804EA02
:10067C0005064F6817F4003F01D042EA0506124DFB
:10068C006E60AD6804EA05064F6817F4801F01D050
:10069C0042EA05060C4DAE60ED682C404E6816F42F
:1006AC00001F01D042EA0504074AD46001330A68EE
:1006BC0032FA03F47FF438AF03B0F0BD00380240D7
:1006CC00000001400000024000040140F0B500238E
:1006DC0077E001229A4011EA020E71D005685E00A3
:1006EC000324B440E44325400560DF08083750F884
:1006FC0027C003F00705AD000F2606FA05F52CEA16
:10070C00050540F82750856825408560456825EA31
:10071C0002024260C2681440C4609F08BC1C2B4A91
:10072C0052F8244003F00302920096403440284DC6
:10073C00A84219D005F58065A84217D005F580654B
:10074C00A84215D005F58065A84213D005F5806543
:10075C00A84211D005F58065A8420FD005F580653B
:10076C00A8420DD106250CE000250AE0012508E081
:10077C00022506E0032504E0042502E0052500E03F
:10078C00072505FA02F294421AD1104DBA1C55F8FD
:10079C00224024EA060645F822600E4A14686FEAE5
:1007AC000E0E04EA0E04146054680EEA040454603D
:1007BC0094680EEA04049460D4680EEA0404D460CD
:1007CC00013331FA03F284D1F0BD00BF00000140C7
:1007DC0000000240000401400369194201D00120CD
:1007EC0070470020704700BF0AB18161704709044F
:1007FC0081617047436959404161704708B5044BAA
:10080C005B69034203D0024B586102F0EFFA08BD5A
:10081C000004014003685A6912F4806F0DD06FF424
:10082C0080625A610423036400230363202280F84E
:10083C003D2080F83C30012070470020704700BFFD
:10084C00F8B506460C4617461D4614E0B5F1FF3FB9
:10085C0011D02DB1FFF7B6FD069BC01A85420AD206
:10086C0000233363202286F83D2086F83E3086F83C
:10087C003C300320F8BDC4F30743012B08D1336887
:10088C005B6924EA03039BB2B3FA83F35B0907E0C9
:10089C0033689B6924EA03039BB2B3FA83F35B09C5
:1008AC00BB42D3D00020F8BDF8B504460D46164621
:1008BC001F4629E023685A6912F4806F12D01A6817
:1008CC0042F400721A6023686FF480625A61042348
:1008DC00236400232363202284F83D2084F83C30D9
:1008EC000120F8BDB6F1FF3F0ED026B1FFF76AFD2F
:1008FC00C01B864208D200232363202284F83D20AB
:10090C0084F83C300320F8BDC5F30743012B08D114
:10091C0023685B6925EA03039BB2003318BF0123EC
:10092C0007E023689B6925EA03039BB2003318BFD9
:10093C000123002BBED10020F8BD00BFF0B583B061
:10094C0004460F4615461E46C36A042B06D0C36ADE
:10095C00012B03D0C36A13F5803F05D122681368BD
:10096C0043F48073136007E0036B122B04D102680D
:10097C00136843F48073136000962B4600224FF0EB
:10098C0001112046FFF75CFF58BB2369B3F5804F7C
:10099C0004D1236807F0FE071F6115E02268FB11E4
:1009AC0003F0060343F0F003136133462A46114962
:1009BC002046FFF779FF20B1236C042B13D10123C0
:1009CC0014E02368FFB21F6133462A460A492046C9
:1009DC00FFF76AFF034648B1236C042B05D10123B2
:1009EC0004E0032302E0032300E00323184603B0D2
:1009FC00F0BD00BF08000100020001002DE9F0412C
:100A0C0084B004460F4615461E460268136843F42C
:100A1C0080631360C36A042B06D0C36A012B03D016
:100A2C00C36A13F5803F05D12268136843F48073C1
:100A3C00136007E0036B112B04D10268136843F4B5
:100A4C008073136000962B4600224FF00111204654
:100A5C00FFF7F6FE002851D12369B3F5804F05D17D
:100A6C00236847F00107FFB21F613AE023684FEAA1
:100A7C00E71808F0060848F0F0021A6133462A46D7
:100A8C0025492046FFF710FF20B1236C042B37D1EA
:100A9C0001233CE02368FFB21F6133462A461F49FD
:100AAC002046FFF701FF20B1236C042B2AD1012330
:100ABC002DE00022039223685969039199690391EF
:100ACC000399196841F48071196000962B464FF018
:100ADC0001112046FFF7B4FEB0B9226848F0F103CB
:100AEC00136133462A460D492046FFF7DDFE0346C7
:100AFC0068B1236C042B09D1012308E0032306E021
:100B0C00032304E0032302E0032300E0032318463D
:100B1C0004B0BDE8F08100BF080001000200010034
:100B2C0070B504460D46164619E02046FFF772FED6
:100B3C00E0B9B5F1FF3F12D025B1FFF743FC801BA4
:100B4C0085420CD2236C43F02003236400232363DF
:100B5C00202284F83D2084F83C30032070BD2368AB
:100B6C005B6913F0800FE0D0002070BD012070BDD8
:100B7C0070B504460D46164619E02046FFF74AFEAE
:100B8C00E0B9B5F1FF3F12D025B1FFF71BFC801B7C
:100B9C0085420CD2236C43F020032364002323638F
:100BAC00202284F83D2084F83C30032070BD23685B
:100BBC005B6913F0040FE0D0002070BD012070BD04
:100BCC0070B505460C46164622E05A6912F0100F15
:100BDC000CD06FF010025A6100232B642B6320227F
:100BEC0085F83D2085F83C30012070BD24B1FFF71D
:100BFC00E9FB801B84420BD22B6C43F020032B644B
:100C0C00202385F83D30002385F83C30032070BD4F
:100C1C002B685A6912F0400FD7D0002070BD00BF6E
:100C2C00002800F0A38070B5044690F83D3013F016
:100C3C00FF0F04D1002380F83C3002F033F901F0AF
:100C4C0097F84C4B984240F29380242384F83D3023
:100C5C002268136823F001031360474BA3FB0023A6
:100C6C009B0C21684A6822F03F021A434A602568AF
:100C7C002A6A22F03F02666840498E4201D801334D
:100C8C0008E04FF4967101FB03F33D49A1FB0313FC
:100C9C009B09013313432B622568EB6923F44F4303
:100CAC0023F0FF03626835498A4208D85200B0FB32
:100CBC00F2F0C0F30B02032A2BD8042029E0A6681B
:100CCC004EB902EB4201B0FBF1F1C1F30B01B1FAE9
:100CDC0081F149090AE002EB820101EB8101B0FBD1
:100CEC00F1F1C1F30B01B1FA81F1490981B936B9BE
:100CFC0002EB4202B0FBF2F040F4004009E002EBE0
:100D0C00820202EB8202B0FBF2F040F4404000E0C1
:100D1C0001201843E86121680B6823F0C002E069E8
:100D2C00236A034313430B6021688B6823F403424B
:100D3C0022F0FF022069E368034313438B602168B0
:100D4C00CB6823F0FF026069A36903431343CB60B4
:100D5C002268136843F001031360002020642023F1
:100D6C0084F83D30206384F83E0070BD012070474C
:100D7C00012070BD7F841E0083DE1B43A086010012
:100D8C00D34D62102DE9F04184B004460D469046D7
:100D9C001F46FFF717FB94F83D30DBB2202B40F0D9
:100DAC00A28006460090192301224FF00211204622
:100DBC00FFF746FD002840F0988094F83C30012B5A
:100DCC0000F09580012384F83C3023681A6812F0F7
:100DDC00010F03D11A6842F001021A6022681368ED
:100DEC0023F400631360212384F83D30102384F82E
:100DFC003E3000232364C4F824806785A3F5803338
:100E0C00E362638D238533460A9A29462046FFF711
:100E1C0095FD054660B1236C042B04D1002384F8A6
:100E2C003C30012568E0002384F83C30032563E066
:100E3C000023039323685A6903929B690393039BD2
:100E4C0040E032460A992046FFF76AFE48B1236C0F
:100E5C00042B4ED12268136843F4007313600125F0
:100E6C004AE02268636A591C61621B781361638DC6
:100E7C009BB2013B9BB26385238D013B2385236889
:100E8C005A6912F0040F0DD067B1626A511C61628D
:100E9C0012781A61638D9BB2013B9BB26385238DE3
:100EAC00013B238532460A992046FFF761FE48B183
:100EBC00236C042B1FD12268136843F40073136056
:100ECC00012519E0238D002BBBD12268136843F454
:100EDC0000731360202384F83D30002384F83E30E7
:100EEC0084F83C3008E0022506E0022504E00225E7
:100EFC0002E0032500E00325284604B0BDE8F0819C
:100F0C002DE9F04186B004460D4690461F46FFF78A
:100F1C0059FA94F83D30DBB2202B40F0598106464B
:100F2C000090192301224FF002112046FFF788FC94
:100F3C00002840F04F8194F83C30012B00F04C819C
:100F4C00012384F83C3023681A6812F0010F03D196
:100F5C001A6842F001021A602268136823F40063D5
:100F6C001360222384F83D30102384F83E30002394
:100F7C002364C4F824806785A3F58033E362638D12
:100F8C00238533460C9A29462046FFF737FD054644
:100F9C0060B1236C042B04D1002384F83C30012570
:100FAC0025E1002384F83C30032520E1238D5BB937
:100FBC00029323685A6902929A690292029A1A68F9
:100FCC0042F400721A60F6E0012B11D1226813680A
:100FDC0023F4806313600023039323685A690392FC
:100FEC009A690392039A1A6842F400721A60E2E05A
:100FFC00022B12D12268136823F4806313602268D9
:10100C00136843F4006313600023049323685A6944
:10101C0004929B690493049BCDE02268136843F40B
:10102C00806313600023059323685A6905929B69BA
:10103C000593059BBFE0032B00F29280012B1AD184
:10104C0032460C992046FFF7BBFD28B1236C202BB0
:10105C0040F0C4800325CAE0636A5A1C62622268AD
:10106C0012691A70238D013B2385638D9BB2013B62
:10107C009BB263859FE0022B2BD100960C9B002228
:10108C005D492046FFF7DCFB002840F0A980226870
:10109C00136843F400731360636A5A1C626222681B
:1010AC0012691A70238D013B2385638D9BB2013B22
:1010BC009BB26385636A5A1C6262226812691A7059
:1010CC00238D013B2385638D9BB2013B9BB26385D2
:1010DC0071E000960C9B002247492046FFF7B0FBBD
:1010EC0000287FD12268136823F480631360636A3D
:1010FC005A1C6262226812691A70238D013B238587
:10110C00638D9BB2013B9BB2638500960C9B0022C6
:10111C0039492046FFF794FB002865D122681368F3
:10112C0043F400731360636A5A1C6262226812698A
:10113C001A70238D013B2385638D9BB2013B9BB2BF
:10114C006385636A5A1C6262226812691A70238D65
:10115C00013B2385638D9BB2013B9BB263852AE0E7
:10116C0032460C992046FFF72BFD20B1236C202B27
:10117C003CD103253BE0636A5A1C62622268126907
:10118C001A70238D013B2385638D9BB2013B9BB26F
:10119C00638523685A6912F0040F0CD0626A511CE3
:1011AC0061621B691370238D013B2385638D9BB298
:1011BC00013B9BB26385238D002B7FF43CAF202336
:1011CC0084F83D30002384F83E3084F83C300EE047
:1011DC0002250CE002250AE0022508E0012506E0C4
:1011EC00032504E0032502E0032500E00125284641
:1011FC0006B0BDE8F08100BF04000100094A136885
:10120C0023F0030318431060074A136923F0040307
:10121C001361012901D130BF704740BF20BF20BFEF
:10122C00704700BF0070004000ED00E0024B1868F2
:10123C0000F4C050704700BF0070004030B583B060
:10124C00204B9B6813F0F00F20D105461D4B5B6AB9
:10125C0013F0805F02D0FFF7E9FF0FE0194C636ACF
:10126C0043F080536362636A03F080530193019BE4
:10127C00FFF7DCFF636A23F080536362B0F5C05F55
:10128C0006D1B5F5404F05D0002104E0002102E065
:10129C00002100E0012121B10B4A136843F0040343
:1012AC001360094A136823F001030B43136013689E
:1012BC0003F00103994201D0012000E0002003B0AB
:1012CC0030BD00BF00380240003C024070B582B017
:1012DC000446036813F0010F00F08E80B34B9B683B
:1012EC0003F00C03082B0AD0B04B9B6803F00C03E3
:1012FC000C2B1BD1AD4B9B6813F4803F16D04FF4D5
:10130C00003393FAA3F3A94B1A684FF4003393FA02
:10131C00A3F3B3FA83F303F01F0322FA03F313F0DE
:10132C00010F69D06368002B66D170E36368012BF1
:10133C0005D19E4A136843F4803313601FE04BB908
:10134C009A4B1A6822F480321A601A6822F48022AE
:10135C001A6014E0052B09D1944B1A6842F48022D0
:10136C001A601A6842F480321A6008E08F4B1A68CF
:10137C0022F480321A601A6822F480221A606368A0
:10138C00EBB1FFF71FF8054605E0FFF71BF8401B14
:10139C00642800F23E834FF4003393FAA3F3834B9B
:1013AC001A684FF4003393FAA3F3B3FA83F303F000
:1013BC001F0322FA03F313F0010FE6D01CE0FFF732
:1013CC0001F8054605E0FEF7FDFF401B642800F21E
:1013DC0022834FF4003393FAA3F3744B1A684FF43F
:1013EC00003393FAA3F3B3FA83F303F01F0322FA47
:1013FC0003F313F0010FE6D1236813F0020F00F092
:10140C0093806A4B9B6803F00C03042B0AD0674B48
:10141C009B6803F00C030C2B28D1644B9B6813F4D2
:10142C00803F23D1022393FAA3F3604B1A68022363
:10143C0093FAA3F3B3FA83F303F01F0322FA03F333
:10144C0013F0010F03D0E368012B40F0E6825748FC
:10145C00436823F4F85123694FF4F85292FAA2F23C
:10146C00B2FA82F293400B4343605DE0E368A3B3AE
:10147C00012292FAA2F3B3FA83F39B0003F18443A3
:10148C0003F58E031A60FEF79DFF054605E0FEF797
:10149C0099FF401B022800F2C282022393FAA3F3A5
:1014AC00424B1A68022393FAA3F3B3FA83F303F0C3
:1014BC001F0322FA03F313F0010FE8D03B484368F3
:1014CC0023F4F85123694FF4F85292FAA2F2B2FACB
:1014DC0082F293400B43436026E0012393FAA3F37B
:1014EC00B3FA83F39B0003F1844303F58E030022CC
:1014FC001A60FEF767FF054605E0FEF763FF401B29
:10150C00022800F28E82022393FAA3F3274B1A6867
:10151C00022393FAA3F3B3FA83F303F01F0322FA23
:10152C0003F313F0010FE8D1236813F0100F00F050
:10153C00E4801E4B9B6813F00C0F72D14FF40073B8
:10154C0093FAA3F3194B1A684FF4007393FAA3F3AD
:10155C00B3FA83F303F01F0322FA03F313F0010F22
:10156C0003D0A369002B00F05E82206A0F4B5B68EE
:10157C0003F4604398421BD9FFF760FE002840F04B
:10158C0054820A494B6823F46042236A13434B602C
:10159C004B6823F07F40E3694FF07F4292FAA2F24E
:1015AC00B2FA82F2934003434B601AE000380240D7
:1015BC00B6494B6823F46043184348604B6823F0EA
:1015CC007F40E3694FF07F4292FAA2F2B2FA82F2C4
:1015DC00934003434B60206AFFF730FE002840F035
:1015EC002682236A4FF4604292FAA2F2B2FA82F295
:1015FC00D3405A1C4FF400439340A44A926802F023
:10160C00F001F02292FAA2F2B2FA82F221FA02F27C
:10161C009F498A5CD3409F4A13600020FEF7A8FEC6
:10162C006BE0A369002B3ED04FF4807393FAA3F3C5
:10163C00B3FA83F39B0003F1844303F58E03012279
:10164C001A60FEF7BFFE054605E0FEF7BBFE401B29
:10165C00022800F2EE814FF4007393FAA3F38B4B44
:10166C001A684FF4007393FAA3F3B3FA83F303F0FD
:10167C001F0322FA03F313F0010FE6D083494B68E2
:10168C0023F46042236A13434B604B6823F07F4082
:10169C00E3694FF07F4292FAA2F2B2FA82F29340DF
:1016AC0003434B6029E04FF4807393FAA3F3B3FA2E
:1016BC0083F39B0003F1844303F58E0300221A602D
:1016CC00FEF780FE054605E0FEF77CFE401B022877
:1016DC0000F2B1814FF4007393FAA3F36B4B1A68C9
:1016EC004FF4007393FAA3F3B3FA83F303F01F03DD
:1016FC0022FA03F313F0010FE6D1236813F0080F5D
:10170C0047D0636913B3012292FAA2F3B3FA83F3BD
:10171C00614941F82320FEF755FE054605E0FEF72A
:10172C0051FE401B022800F28881022393FAA3F297
:10173C00564A526B93FAA3F3B3FA83F303F01F03E5
:10174C0022FA03F313F0010FE9D022E0012393FAFC
:10175C00A3F3B3FA83F300214F4A42F82310FEF7A8
:10176C0031FE054605E0FEF72DFE401B022800F277
:10177C006681022393FAA3F2444A526B93FAA3F3C1
:10178C00B3FA83F303F01F0322FA03F313F0010FF0
:10179C00E9D1236813F0040F00F0A1803B4B5B6A86
:1017AC0013F0805F0BD1394B5A6A42F080525A6267
:1017BC005B6A03F080530193019B012500E0002537
:1017CC00364B1B6813F4807F13D1344A136843F4EF
:1017DC0080731360FEF7F6FD064605E0FEF7F2FD9A
:1017EC00801B642800F22D812C4B1B6813F4807F26
:1017FC00F4D0A368012B05D1244A536B43F48073B6
:10180C0053631FE04BB9214B5A6B22F480725A631D
:10181C005A6B22F480625A6314E0052B09D11B4BDE
:10182C005A6B42F480625A635A6B42F480725A6368
:10183C0008E0164B5A6B22F480725A635A6B22F4EE
:10184C0080625A63A368EBB1FEF7BCFD064607E065
:10185C00FEF7B8FD801B41F28833984200F2F3800A
:10186C004FF4007393FAA3F2084A526B93FAA3F362
:10187C00B3FA83F303F01F0322FA03F313F0010FFF
:10188C00E6D026E0FEF79EFD064611E00038024049
:10189C002C3A00080C0000208006474200700040E3
:1018AC00FEF790FD801B41F28833984200F2CD8008
:1018BC004FF4007393FAA3F26A4A526B93FAA3F3B0
:1018CC00B3FA83F303F01F0322FA03F313F0010FAF
:1018DC00E6D125B1634A536A23F080535362636A9D
:1018EC00002B00F0B4805F4A926802F00C020C2AC4
:1018FC0000F0AF80022B5FD14FF0807393FAA3F30B
:10190C00B3FA83F39B0003F1844303F58E030022A7
:10191C001A60FEF757FD054605E0FEF753FD401B28
:10192C00022800F298804FF0007393FAA3F34D4B0A
:10193C001A684FF0007393FAA3F3B3FA83F303F02E
:10194C001F0322FA03F313F0010FE6D14548836815
:10195C0023F47D01A26AE36A1343226B13430B4306
:10196C0083604FF0807393FAA3F3B3FA83F39B0075
:10197C0003F1844303F58E0301221A60FEF722FD66
:10198C00044604E0FEF71EFD001B022865D84FF04C
:10199C00007393FAA3F3334B1A684FF0007393FA66
:1019AC00A3F3B3FA83F303F01F0322FA03F313F048
:1019BC00010FE7D0002053E04FF0807393FAA3F3AC
:1019CC00B3FA83F39B0003F1844303F58E030022E7
:1019DC001A60FEF7F7FC044604E0FEF7F3FC001B6C
:1019EC0002283CD84FF0007393FAA3F31D4B1A68EE
:1019FC004FF0007393FAA3F3B3FA83F303F01F03CE
:101A0C0022FA03F313F0010FE7D1002028E00120A4
:101A1C0026E0032024E0032022E0012020E0032024
:101A2C001EE003201CE001201AE0012018E0012038
:101A3C0016E0032014E0032012E0032010E0032042
:101A4C000EE003200CE003200AE0032008E0002055
:101A5C0006E0012004E0032002E0032000E0032064
:101A6C0002B070BD00380240234B9B6803F00C029F
:101A7C00082A3ED00C2A03D0042A28D11F487047CC
:101A8C0003F470114FF4701292FAA2F2B2FA82F2CD
:101A9C0021FA02F21A49895C03F440034FF4400026
:101AAC0090FAA0F0B0FA80F0C3400133124A926869
:101ABC0012F4803F05D0134800FB01F0B0FBF3F0AB
:101ACC0070470E4A02FB01F0B0FBF3F070470A4B73
:101ADC00586800F460434FF4604090FAA0F0B0FAFC
:101AEC0080F023FA00F001304FF4004303FA00F0C9
:101AFC0070470448704700BF003802400024F400CF
:101B0C00443A000800366E0170B5924B1B6803F026
:101B1C0001038B4212D2012904D18E4A136843F07F
:101B2C00040313608B4A136823F001030B43136007
:101B3C00136803F00103994240F0F780036813F037
:101B4C00020F06D0844CA36823F0F0028368134381
:101B5C00A3600D460446036813F0010F00F09F804C
:101B6C004368022B13D14FF4003292FAA2F27A4A54
:101B7C0011684FF4003292FAA2F2B2FA82F202F039
:101B8C001F0221FA02F212F0010F3ED1CFE0032B1B
:101B9C0013D14FF0007292FAA2F26F4A11684FF013
:101BAC00007292FAA2F2B2FA82F202F01F0221FA49
:101BBC0002F212F0010F28D1BBE0012B11D102224D
:101BCC0092FAA2F2644A1168022292FAA2F2B2FAD2
:101BDC0082F202F01F0221FA02F212F0010F14D16C
:101BEC00A9E04FF4007292FAA2F25B4A11684FF42A
:101BFC00007292FAA2F2B2FA82F202F01F0221FAF9
:101C0C0002F212F0010F00F0988053498A6822F01A
:101C1C00030213438B60FEF7D5FB06466368022B69
:101C2C000FD107E0FEF7CEFB801B41F288339842C0
:101C3C0000F28580484B9B6803F00C03082BF1D114
:101C4C002DE0032B0ED106E0FEF7BCFB801B41F20E
:101C5C008833984275D8404B9B6803F00C030C2BCF
:101C6C00F2D11CE0012B15D106E0FEF7ABFB801B7B
:101C7C0041F28833984266D8374B9B6803F00C03CB
:101C8C00042BF2D10BE0FEF79DFB801B41F2883355
:101C9C0098425AD8304B9B6813F00C0FF3D12D4B54
:101CAC001B6803F001039D4211D2012D04D1294A76
:101CBC00136843F004031360264A136823F00103EE
:101CCC002B431360136803F001039D423FD123683B
:101CDC0013F0040F06D020498B6823F4E062E3680C
:101CEC0013438B60236813F0080F07D01A4A9368CC
:101CFC0023F46053216943EAC1039360FFF7B4FEF8
:101D0C00154B9B6803F0F002F02393FAA3F3B3FA9C
:101D1C0083F322FA03F3114AD35CD840104B1860BA
:101D2C000020FEF725FB002070BD012070BD0120B6
:101D3C0070BD012070BD012070BD012070BD03205D
:101D4C0070BD032070BD032070BD032070BD012049
:101D5C0070BD00BF003C0240003802402C3A000825
:101D6C000C000020014B1868704700BF0C000020CD
:101D7C0008B5FFF7F7FF084B9B6803F4E0624FF4DC
:101D8C00E06393FAA3F3B3FA83F322FA03F3034A5F
:101D9C00D35CD84008BD00BF003802403C3A000874
:101DAC0008B5FFF7DFFF084B9B6803F460524FF454
:101DBC00605393FAA3F3B3FA83F322FA03F3034ABF
:101DCC00D35CD84008BD00BF003802403C3A000844
:101DDC002DE9F843044601680B6923F44052C368AB
:101DEC0013430B6181680369194343691943C36940
:101DFC0019430068C26822F4164323F00C030B430A
:101E0C00C36021684B6923F44072A36913434B618F
:101E1C00E369B3F5004F40F0B2802768AF4B9F42A7
:101E2C0055D1FFF7BDFF00EB800000EB800065682B
:101E3C006D00B0FBF5F5AA4EA6FB05356D092D011D
:101E4C00FFF7AEFF00EB800000EB800063685B00E7
:101E5C00B0FBF3F9FFF7A4FF00EB800000EB800070
:101E6C0063685B00B0FBF3F3A6FB03235B094FF045
:101E7C00640808FB1393DB003233A6FB03235B09D6
:101E8C005B0003F4F8731D44FFF78AFF00EB80003E
:101E9C0000EB800063685B00B0FBF3F9FFF780FF99
:101EAC0000EB800000EB800063685B00B0FBF3F399
:101EBC00A6FB03235B0908FB1393DB003233A6FB61
:101ECC000336C6F342163544BD60BDE8F883FFF710
:101EDC004FFF00EB800000EB800065686D00B0FBED
:101EEC00F5F57F4EA6FB05356D092D01FFF740FF7B
:101EFC0000EB800000EB800063685B00B0FBF3F943
:101F0C00FFF736FF00EB800000EB800063685B009E
:101F1C00B0FBF3F3A6FB03235B094FF0640808FB4B
:101F2C001393DB003233A6FB03235B095B0003F442
:101F3C00F8731D44FFF71CFF00EB800000EB8000E2
:101F4C0063685B00B0FBF3F9FFF712FF00EB800056
:101F5C0000EB800063685B00B0FBF3F3A6FB03238C
:101F6C005B0908FB13984FEAC80808F13208A6FB76
:101F7C000836C6F342163544BD60BDE8F8832668C2
:101F8C00564B9E4254D1FFF70BFF00EB800000EB49
:101F9C0080006568AD00B0FBF5F5514FA7FB05352A
:101FAC006D092D01FFF7FCFE00EB800000EB8000BB
:101FBC0063689B00B0FBF3F8FFF7F2FE00EB8000C8
:101FCC0000EB800063689B00B0FBF3F3A7FB0323DB
:101FDC005B094FF0640909FB13831B013233A7FB28
:101FEC0003235B0903F0F0031D44FFF7D9FE00EB5C
:101FFC00800000EB800063689B00B0FBF3F8FFF7F8
:10200C00CFFE00EB800000EB800063689B00B0FB10
:10201C00F3F3A7FB03235B0909FB13831B01323387
:10202C00A7FB0323C3F343131D44B560BDE8F8833A
:10203C00FFF79EFE00EB800000EB80006568AD00B2
:10204C00B0FBF5F5264FA7FB05356D092D01FFF704
:10205C008FFE00EB800000EB800063689B00B0FB00
:10206C00F3F8FFF785FE00EB800000EB800063685F
:10207C009B00B0FBF3F3A7FB03235B094FF0640950
:10208C0009FB13831B013233A7FB03235B0903F00A
:10209C00F0031D44FFF76CFE00EB800000EB8000AA
:1020AC0063689B00B0FBF3F8FFF762FE00EB800067
:1020BC0000EB800063689B00B0FBF3F3A7FB0323EA
:1020CC005B0909FB13831B013233A7FB0323C3F307
:1020DC0043131D44B560BDE8F88300BF00380140D0
:1020EC001F85EB512DE9F04105460E4690461C46E6
:1020FC00FEF768F90746B8F1000F26D053E0B4F1AB
:10210C00FF3F22D024B1FEF75DF9C01B84421CD2E4
:10211C002A68D36823F08003D3602A68D36823F03D
:10212C002003D3602A68D36823F48073D3602A68B1
:10213C00536923F001035361012385F839300023DF
:10214C0085F838300320BDE8F0812B681B6836EA2F
:10215C000303D4D10020BDE8F081B4F1FF3F22D0BD
:10216C0024B1FEF72FF9C01B84421CD22A68D36815
:10217C0023F08003D3602A68D36823F02003D36054
:10218C002A68D36823F48073D3602A68536923F0D8
:10219C0001035361012385F83930002385F8383069
:1021AC000320BDE8F0812B681B6836EA0303D4D00A
:1021BC000020BDE8F08100BF58B310B5044690F87C
:1021CC00393013F0FF0F04D1002380F8383000F0C1
:1021DC0093FE022384F839302268D36823F4005329
:1021EC00D3602046FFF7F4FD2268136923F4904373
:1021FC0013612268536923F02A0353612268D36860
:10220C0043F40053D3600020E063012384F8393099
:10221C0010BD0120704700BFC8B138B50446022379
:10222C0080F839300268D36823F40053D360036814
:10223C000025DD6003681D6103685D6100F0A2FE8E
:10224C00E56384F8395084F83850284638BD0120AD
:10225C00704700BF70B504460D461E4690F83930E5
:10226C00DBB2012B01D0222B5AD1002D5AD0002ADF
:10227C005AD094F83830012B58D0012384F83830D8
:10228C000023E36394F83930DBB2222B03D13223E1
:10229C0084F8393002E0122384F83930A284E284C5
:1022AC0023E0013BE384A368B3F5805F12D133468E
:1022BC00002280212046FFF715FF002838D1226824
:1022CC002B88C3F30803536023690BB902350CE068
:1022DC0001350AE03346002280212046FFF702FF39
:1022EC0040BB23682A785A600135E38C002BD8D187
:1022FC003346002240212046FFF7F4FE0346D8B9AE
:10230C0094F83920D2B2322A03D1222284F839200F
:10231C0002E0012284F83920002284F838200CE0F5
:10232C0002230AE0012308E0012306E0022304E073
:10233C00032302E0032300E00323184670BD00BF13
:10234C00FEE700BF08B50D4B1B6813B90C4A0B4BCD
:10235C001A600A4B1A68C31C23F00303134409497F
:10236C008B4206D900F050FE0C2303604FF0FF3077
:10237C0008BD02490B60104608BD00BF800000205C
:10238C009002002000BC002001230360014B0B6075
:10239C00704700BF040000200FB400B583B004AB3D
:1023AC0053F8042B01938021064800F087FE002887
:1023BC0003DD0146034800F007F803B05DF804EBB9
:1023CC0004B07047880000204FF0FF30704700BF0A
:1023DC0008B500F087F8024B024A9A6008BD00BFAE
:1023EC0000ED00E00000000808B500F09FF808BD03
:1023FC00F8B504460D4617461E462648FFF7CCFF97
:10240C0021682548FFF7C8FF61682448FFF7C4FF1F
:10241C00A1682348FFF7C0FFE1682248FFF7BCFF23
:10242C0021692148FFF7B8FF61692048FFF7B4FF25
:10243C00A1691F48FFF7B0FFE1691E48FFF7ACFF29
:10244C001D48FFF7A9FF29461C48FFF7A5FF1C4CA8
:10245C00E16A1C48FFF7A0FF216B1B48FFF79CFFAC
:10246C00E16B1A48FFF798FF15F0800F03D039463F
:10247C001748FFF791FF15F4004F03D0314615486C
:10248C00FFF78AFF1448FFF787FF06991348FFF7F9
:10249C0083FFF8BDE4380008F4380008043900085C
:1024AC00143900082439000834390008443900086C
:1024BC005439000864390008743900088039000860
:1024CC0000ED00E090390008A0390008B039000890
:1024DC00C0390008D0390008E0390008E839000894
:1024EC00FEE700000E4B1A6842F480721A6099687D
:1024FC000C4A0A409A601A6822F0885222F00112A3
:10250C001A601A6822F480221A609A6822F47D02FA
:10251C009A600022DA604FF00062034B9A607047B9
:10252C00003802400CC0FF8800ED00E02B4B9B688C
:10253C0003F00C030C2B3AD8DFE803F007393939D8
:10254C0013393939173939391B00244B5B68C3F3FC
:10255C00423301334FF4004202FA03F3204A136072
:10256C0030E0204A1E4B1A602CE01E4A1C4B1A60AD
:10257C0028E01A4A91689368C1F383411A48405C79
:10258C00C3F381530133926812F4803F07D115498C
:10259C0001FB00F2B2FBF3F3114A136012E0114A93
:1025AC0002FB00F2B2FBF3F30D4A13600AE00B4B93
:1025BC005B68C3F3423301334FF4004202FA03F376
:1025CC00074A1360054B9B68C3F30313074AD15C9E
:1025DC00034A1368CB401360704700BF00380240B9
:1025EC000C00002000127A00443A00082C3A000833
:1025FC00014B1860704700BF7001002010B582B00D
:10260C00064B1C684FF0FF3300930B4602464821E3
:10261C002046FEF7B7FB02B010BD00BF70010020D2
:10262C0030B583B004460D460220FDF7D1FE064BB3
:10263C0018684FF0FF330093AB1C22464821FEF77D
:10264C005FFC03B030BD00BF7001002070B50446C4
:10265C000131CDB20220FDF7BBFE134A00231370EB
:10266C005370FF219170D57069421171D421517151
:10267C000621D32209E0E65C0B4846540131C9B26D
:10268C00E05C0244D2B20133DBB2681E8342F2DB5F
:10269C000548D24342544B1CDBB20022C2540231D7
:1026AC00C9B2FFF7ABFF70BD2001002008B54FF495
:1026BC0000510348FEF790F8B0FA80F0400908BDCD
:1026CC000000024038B50546002407E01DB1053472
:1026DC00A4B2A54208D30520FDF77AFEFFF7E6FF6A
:1026EC0003460028F2D00123184638BD00B585B04A
:1026FC000B4B186802909A889B79ADF80C208DF8DA
:10270C000E3006216846FFF78BFF072202A96846A8
:10271C0000F093FCB0FA80F0400905B05DF804FBC2
:10272C00503A000810B51446FFF790FF2046FFF70B
:10273C00C9FF034620B1FFF7D9FF034600B10123BF
:10274C00184610BD10B50D481422027001234370B9
:10275C008270C3704FF47A720421FFF7E3FF0346D3
:10276C0048B1064C08212046FFF75AFFE379152B98
:10277C0014BF00230123184610BD00BF78010020B0
:10278C0010B582B06B46144A52F8080F516803C357
:10279C001248022303704FF47A720121FFF7C2FF33
:1027AC00A8B10E4C0C212046FFF73AFF08226946CF
:1027BC00204600F042FC60B9207A627A42EA00209E
:1027CC00A27A42EA0020E37A43EA002002E00020E9
:1027DC0000E0002002B010BD503A00087801002043
:1027EC0070B50D4616461C46164B4A221A7001222D
:1027FC005A709870224603211846FFF793FF024641
:10280C00E8B12046FFF75EFF0246C0B10D4C142123
:10281C002046FFF705FF227A012A0FD1237B337064
:10282C00002306E003F10D010648415CE954013335
:10283C00DBB20449097B8B42F4D300E00022104642
:10284C0070BD00BF78010020F0B589B02A4BDA6961
:10285C0042F00402DA61DA6902F004020092009A92
:10286C00DA6942F00102DA61DA6902F001020192DE
:10287C00019ADA6942F00202DA61DB6903F00203C1
:10288C000293029B4FF40056039600240494059483
:10289C0003A91A48FDF744FE49F2E003039301270C
:1028AC00049705940694164D03A92846FDF738FEA7
:1028BC003A46E0212846FDF797FF22464FF4104197
:1028CC002846FDF791FF4FF4006303930D4B0493DF
:1028DC00059403A92846FDF723FE2246214628200D
:1028EC00FDF7A6FD03960494059403A92846FDF76D
:1028FC0017FE09B0F0BD00BF0038024000080240CE
:10290C00000002400000111030B58BB005460C469B
:10291C00082946DC00230293049305930693CDF813
:10292C001B3041228DF8042054228DF805202422DE
:10293C008DF8062044228DF80720C0228DF808203F
:10294C0014228DF80A2034228DF80B2001228DF8E8
:10295C000C2032218DF80D10D7218DF80E108DF82A
:10296C000F2010218DF811108DF8122020218DF8D8
:10297C0013108DF8142008228DF8162007E003F1AF
:10298C001302E95C0AA8024402F8241C0133A34296
:10299C00F5DB4FF0FF331B2201A92648FFF75AFC49
:1029AC0045E0102943DC2322002101A800F03DFB67
:1029BC0041238DF8043054238DF8053024238DF8F1
:1029CC00063044238DF80730C0238DF808301C23C3
:1029DC008DF80A3034238DF80B3001238DF80C3030
:1029EC0032228DF80D20D7228DF80E208DF80F3065
:1029FC0010228DF811208DF8123020218DF8131033
:102A0C008DF814308DF81620002307E003F1130223
:102A1C00E95C0AA8024402F8241C0133A342F5DB4A
:102A2C004FF0FF33232201A90248FFF713FC0BB030
:102A3C0030BD00BF0C020020FEE700BF08B50B48FC
:102A4C000B4B036042F21073436000238360C3603E
:102A5C004FF48042026143618361C3610362FEF7FC
:102A6C00DFF808B1FFF7E8FF08BD00BFB801002090
:102A7C000054004008B50A480A4B03604FF4E13398
:102A8C00436000238360C36003610C224261836155
:102A9C00C361FFF791FB08B1FFF7CEFF08BD00BF84
:102AAC000C0200200038014008B50A480A4B0360AC
:102ABC004FF4E133436000238360C36003610C2255
:102ACC0042618361C361FFF777FB08B1FFF7B4FF85
:102ADC0008BD00BF4C0200200044004000B583B08C
:102AEC000F48FFF799FB0F48FFF796FBFDF77EFCAD
:102AFC000D4B5A6A42F080525A625B6A03F0805363
:102B0C000193019B01210020FEF778FBFDF776FC79
:102B1C00FFF7B0FFFFF7C8FF03B05DF804FB00BF81
:102B2C004C0200200C0200200038024000B593B08B
:102B3C001B4A136823F4C05343F40063136010233F
:102B4C00059301230B9300230C934FF420420D9219
:102B5C000E9305A8FEF7BAFB08B1FFF76DFF0F2324
:102B6C000093002101910291039104916846FEF7B4
:102B7C00CBFF08B1FFF760FFFFF7F4F8094BA3FB9D
:102B8C0000308009FDF7A0FC0420FDF7B3FC002207
:102B9C0011464FF0FF30FDF74BFC13B05DF804FB12
:102BAC0000700040D34D621030B585B02820FDF781
:102BBC007DFCFDF7F3FBFFF7B9FFFFF745FEFFF7D1
:102BCC003DFFFFF757FFFFF76FFF8348FFF710FD3F
:102BDC0000230293CDF80B30804B1B88ADF80430EA
:102BEC004FF47A70FDF7F4FB7D4C01224FF4004159
:102BFC002046FDF7F9FD20212046FDF7FBFD402185
:102C0C002046FDF7F7FD80212046FDF7F3FD0A2055
:102C1C00FDF7DEFB20212046FDF7ECFD4021204690
:102C2C00FDF7E8FD80212046FDF7E4FD4FF47A70B6
:102C3C00FDF7CEFBFFF7A4FD40B940216848FDF736
:102C4C00D9FD4FF47A70FDF7C3FBF6E7644C2021F5
:102C5C002046FDF7CFFD0A20FDF7BAFB20212046C8
:102C6C00FDF7C8FDFFF76EFD5D4C80212046FDF79A
:102C7C00C1FD0A20FDF7ACFB80212046FDF7BAFD13
:102C8C00584B1B7813F0010FEED041F288330DF145
:102C9C00030202A90020FFF7A3FD88B30A20FDF769
:102CAC0097FB00224FF400412046FDF79DFD0A20C2
:102CBC00FDF78EFB01224FF480512046FDF794FD69
:102CCC000A20FDF785FB20212046FDF793FD0A2005
:102CDC00FDF77EFB20212046FDF78CFD40F2DC50F9
:102CEC00FDF776FB072102A8FFF70EFE6420FDF727
:102CFC006FFB00224FF480512046FDF775FD31E04B
:102D0C000A20FDF765FB364C00224FF400412046AB
:102D1C00FDF76AFD0A20FDF75BFB01224FF48051A1
:102D2C002046FDF761FD0A20FDF752FB40212046AD
:102D3C00FDF760FD0A20FDF74BFB40212046FDF717
:102D4C0059FD40F2DC50FDF743FB022101A8FFF7CF
:102D5C00DBFD6420FDF73CFB00224FF48051204644
:102D6C00FDF742FD1F4A13785BB223F00103137089
:102D7C002820FDF78FFB0A20FDF72AFBFFF7AEFE9C
:102D8C000A20FDF725FB184C0B2565610A20FDF781
:102D9C001FFB2820FDF78AFB0A20FDF719FB656154
:102DAC000A20FDF715FB01224FF400410C48FDF7FA
:102DBC001BFD4FF47A70FDF70BFBFFF7E1FC40B9FC
:102DCC0040210748FDF716FD4FF47A70FDF700FB24
:102DDC00F6E7FFF7B7FC47E7B8010020A03A000878
:102DEC00000002401000002000040140B0F5006F0C
:102DFC0005D1034A13785BB243F00103137070479B
:102E0C001000002000B585B0254B5A6A42F00042F4
:102E1C005A625A6A02F000420192019A1A6A42F00E
:102E2C0001021A621A6A02F001020292029A5A6AAA
:102E3C0042F080525A625B6A03F080530393039B07
:102E4C000320FDF7E3FA002211466FF00B00FDF7AB
:102E5C00EFFA002211466FF00A00FDF7E9FA0022A2
:102E6C0011466FF00900FDF7E3FA002211466FF0EE
:102E7C000400FDF7DDFA002211466FF00300FDF7A8
:102E8C00D7FA002211466FF00100FDF7D1FA0022AB
:102E9C0011464FF0FF30FDF7CBFA05B05DF804FB9F
:102EAC00003802400268114B9A421DD100B587B020
:102EBC00C02301931223029301230393032304934E
:102ECC00042305930DEB03010948FDF729FB094B7E
:102EDC005A6A42F400125A625B6A03F400130093BC
:102EEC00009B07B05DF804FB704700BF0054004026
:102EFC00000402400038024000B589B003681D4A46
:102F0C00934219D11C4B1A6A42F480421A621B6A12
:102F1C0003F480430193019B4FF4C063039302239A
:102F2C00049301230593032306930723079303A913
:102F3C001248FDF7F5FA1AE0114A934217D10E4BDD
:102F4C005A6A42F400325A625B6A03F40033029309
:102F5C00029B0C2303930223049301230593032365
:102F6C0006930723079303A90448FDF7D9FA09B080
:102F7C005DF804FB003801400038024000000240BC
:102F8C000044004008B503680E4A93420BD102F589
:102F9C008032136A23F4804313624FF4C0610A48F1
:102FAC00FDF794FB08BD094A934209D102F5FA32A8
:102FBC00536A23F4003353620C210348FDF786FB5C
:102FCC0008BD00BF00380140000002400044004032
:102FDC00704700BFFEE700BFFEE700BFFEE700BF83
:102FEC00FEE700BF704700BF704700BF704700BFCF
:102FFC0008B5FDF7DFF9FDF78FFA08BD08B54FF4FA
:10300C000060FDF7FBFB08BD014B1868704700BF63
:10301C007400002010B5431E0A44914204D011F8EC
:10302C00014B03F8014FF8E710BD034602449342ED
:10303C0002D003F8011BFAE7704730B582B1451E88
:10304C00013915F8013F11F8014FA34206D1EC43A9
:10305C001444E04201D0002BF3D11C46181B30BDA8
:10306C00104630BD30B5141E05469BB0184604DA28
:10307C008B232B604FF0FF301DE04FF40273ADF843
:10308C000C300CBF234604F1FF33029305934FF62B
:10309C00FF7300910491ADF80E3002461E9B6946F9
:1030AC00284600F073F8431CBCBF8B232B6014B173
:1030BC00009B00221A701BB030BD000007B50093B6
:1030CC0013460A46014603480068FFF7CBFF03B0DE
:1030DC005DF804FB740000202DE9F0478E688246F1
:1030EC009E420C46914698463ED88A8912F4906FBF
:1030FC003AD02568096902236F1A656905EB450505
:10310C0095FBF3F57B1C43449D4238BF1D4653058C
:10311C000FD5294600F040FB064698B13A46216986
:10312C00FFF778FFA38923F4906343F08003A38116
:10313C0013E02A4600F08EFB064670B92169504612
:10314C0000F0DEFA0C23CAF80030A3894FF0FF30F0
:10315C0043F04003A381BDE8F08726613E4426601E
:10316C0046466561ED1BA560464528BF4646494667
:10317C003246206800F0A8FAA36800209B1BA360CD
:10318C0023681E442660BDE8F08700002DE9F04F4F
:10319C009DB003938B8980461C060D4616460DD5B3
:1031AC000B695BB9402100F0F7FA2860286118B967
:1031BC000C23C8F80030CDE040236B610023099349
:1031CC0020238DF82930DFF89CB130238DF82A307C
:1031DC0037463C4614F8013B1BB9B7EB060910D037
:1031EC0003E0252BF9D02746F3E74B463246294618
:1031FC004046FFF771FF013000F0A780099B4B445C
:10320C0009933B78002B00F0A08000234FF0FF3295
:10321C0004930793059206938DF853301A93012665
:10322C00052221784E4800F041FA671C049B38B106
:10323C004B4A3C46801A06FA00F018430490EFE71C
:10324C00D90644BF20228DF853201A0744BF2B22E5
:10325C008DF8532022782A2A03D0079A00210A20BD
:10326C000BE0039A111D12680391002A10DA5242E6
:10327C0043F00200079204900BE027463B780134A0
:10328C00303B092B03D800FB02320121F5E701B1D9
:10329C0007923B782E2B1ED17B782A2B0AD1039BCD
:1032AC0002371A1D1B680392002BB8BF4FF0FF3377
:1032BC00059310E0002319460593781C0A24074651
:1032CC003A780130303A092A03D804FB0121012352
:1032DC00F5E703B1059103223978224800F0E6F9AD
:1032EC0040B14023CBEB000003FA00F0049B013704
:1032FC0018430490397806221B487E1C8DF8281040
:10330C0000F0D4F988B1194B33B9039B073323F080
:10331C0007030833039314E003AB00932A46144BC2
:10332C0004A94046AFF3008007E003AB00932A46A4
:10333C000F4B04A9404600F093F8B0F1FF3F8246D2
:10334C0003D0099B5344099342E7AB895B0601D434
:10335C00099801E04FF0FF301DB0BDE8F08F00BFC1
:10336C00A23A0008A83A0008AC3A00080000000095
:10337C00E53000082DE9F04791461F460A698B6835
:10338C0006469342B8BF1346C9F8003091F8432063
:10339C000C46DDF8208012B10133C9F800302368E7
:1033AC00990642BFD9F800300233C9F800302568BD
:1033BC0015F0060510D104F1190A07E00123524655
:1033CC0039463046C04701301AD00135E368D9F888
:1033DC0000209B1A9D42F1DB94F8433022680033A5
:1033EC0018BF012392060FD5E118302081F8430055
:1033FC005A1C94F845102244023382F8431003E01F
:10340C004FF0FF30BDE8F08704F1430239463046F7
:10341C00C0470130F4D02268D9F80050E36802F0BC
:10342C000602042A08BF5D1B2269A3680CBF25EAAB
:10343C00E57500259342C4BF9B1AED184FF00009A7
:10344C001A344D4509D00123224639463046C0472F
:10345C000130D5D009F10109F3E70020BDE8F08770
:10346C002DE9F04317460A7E85B06E2A984606462B
:10347C000C460C9B01F1430E00F0AE8011D8632A70
:10348C0022D009D8002A00F0BB80582A40F0CA800C
:10349C0081F84520834955E0642A1ED0692A1CD046
:1034AC00C0E0732A00F0B08009D86F2A2ED0702AA1
:1034BC0040F0B8800A6842F020020A603EE0752AAB
:1034CC0024D0782A3AD0ADE01A6801F14205111DDA
:1034DC001960136884F84230A8E021681A6811F06A
:1034EC00800F02D0111D196008E011F0400F02F19D
:1034FC000401196002D0B2F9003000E01368002B0F
:10350C003CDA2D225B4284F8432037E021681A68AC
:10351C0011F0800F02D0111D196007E011F0400F5F
:10352C0002F10401196001D0138800E01368227EB7
:10353C005C496F2A14BF0A2208221BE078225A49E0
:10354C0084F845202268186812F0800F00F10405F9
:10355C001D6003D1550601D5038800E00368D00730
:10356C0044BF42F0200222601BB9226822F02002E4
:10357C0022601022002084F8430001E049490A220D
:10358C006568002DA56008DB206820F00400206031
:10359C002BB9002D7DD175460CE0002B79D07546EA
:1035AC00B3FBF2F002FB1033CB5C05F8013D034694
:1035BC000028F5D1082A0BD12368DA0708D523692E
:1035CC0062689A42DEBF302305F8013C05F1FF35F5
:1035DC00C5EB0E0323612EE008681A6810F0800F0B
:1035EC00496903D0101D1860136808E010F0400FF3
:1035FC0002F104001860136801D0198000E0196012
:10360C0000232361754616E01A68111D19601568B0
:10361C0000216268284600F049F808B1401B606040
:10362C00636804E004F1420584F84220012323611D
:10363C00002384F84330CDF800803B4603AA214692
:10364C003046FFF797FE013002D14FF0FF3026E0F5
:10365C0023692A4639463046C0470130F5D02368E5
:10366C009B0710D5002504F1190907E001234A46F0
:10367C0039463046C0470130E7D00135E368039A3C
:10368C009B1A9D42F2DBE068039B9842B8BF184638
:10369C0005E00B7804F1420584F842308AE705B066
:1036AC00BDE8F083B33A0008C43A000810B5C9B2BB
:1036BC0002449042034605D01C7801308C42F8D16C
:1036CC00184610BD002010BD884210B501EB020356
:1036DC0001D8421E0BE09842FBD28118D21AD34279
:1036EC0004D013F8014D01F8014DF8E710BD9942D3
:1036FC0004D011F8014B02F8014FF8E710BD00009F
:10370C0038B50546002944D051F8043C0C1F002B59
:10371C00B8BFE41800F0D4F81E4A1368114613B968
:10372C006360146030E0A3420DD92268A018834274
:10373C0001BF18685B681218226063600C6023E09C
:10374C00A24203D813465A68002AF9D118681918EE
:10375C00A1420BD12168014458188242196013D13F
:10376C0010685268014419605A600DE002D90C23AC
:10377C002B6009E021686018824201BF1068526812
:10378C000918216062605C602846BDE8384000F092
:10379C0098B838BD0C01002070B5CD1C25F0030580
:1037AC0008350C2D38BF0C25002D064601DBA9422F
:1037BC0002D90C23336046E000F082F8234B1C68DE
:1037CC001A462146A1B10B685B1B0ED40B2B03D9F7
:1037DC000B60CC18CD501EE08C420BBF63684B685D
:1037EC001360636018BF0C4615E00C464968E9E7A6
:1037FC00174C23681BB9304600F052F8206029465C
:10380C00304600F04DF8431C18D0C41C24F00304BF
:10381C00A0420DD12560304600F053F804F10B00A6
:10382C00231D20F00700C31A0ED05A42E25070BD7F
:10383C00211A304600F034F80130EBD10C23336000
:10384C00304600F03EF8002070BD00BF0C01002097
:10385C0008010020F8B5074615460E4621B9114659
:10386C00BDE8F840FFF798BF1AB9FFF749FF2846A3
:10387C00F8BD00F027F885420ED929463846FFF7E7
:10388C008BFF044650B131462A46FFF7C3FB314645
:10389C003846FFF735FF01E03046F8BD2046F8BD4D
:1038AC0038B5064C0023054608462360FEF74AFD52
:1038BC00431C02D1236803B12B6038BD14010020D6
:1038CC007047704751F8040C0028BEBF091851F816
:1038DC00043CC01804387047537461636B206672E3
:1038EC00616D653A0A000000205230203D202025F1
:1038FC003038580A00000000205231203D2020258D
:10390C003038580A00000000205232203D2020257B
:10391C003038580A00000000205233203D2020256A
:10392C003038580A0000000020523132203D20254A
:10393C003038580A00000000204C52203D20202531
:10394C003038580A00000000205043203D2020252C
:10395C003038580A0000000020505352203D2025DA
:10396C003038580A000000004653522F4641523A54
:10397C000A0000002043465352203D2020253038B9
:10398C00580A00002048465352203D20202530384C
:10399C00580A00002044465352203D202025303840
:1039AC00580A00002041465352203D202025303833
:1039BC00580A0000204D4D464152203D20253038FC
:1039CC00580A00002042464152203D202025303824
:1039DC00580A00004D6973630A000000204C522FF6
:1039EC004558435F52455455524E3D20253038586A
:1039FC000A0000005B486172644661756C745D0A74
:103A0C00000000005B4275734661756C745D0A00C2
:103A1C005B55736167654661756C745D0A000000E7
:103A2C000000000000000000010203040607080962
:103A3C000000000001020304030406080C10182007
:103A4C0030000000010000FF00FF0000010000FF3B
:103A5C0006FAD503140103E103E103E103E103E1F9
:103A6C0003E103E103E103E103E103E103E103E12A
:103A7C0003E103E1A0A1A2A3A4A5787788C1FFFF6D
:103A8C00FFFFFFFFD3F7D3F7D3F77F078840FFFF84
:103A9C00FFFFFFFF2A2A232D302B2000686C4C00DF
:103AAC006566674546470030313233343536373832
:103ABC003941424344454600303132333435363790
:093ACC003839616263646566002B
:103AD80078563412840000200000000068FF1F00A0
:103AE80001FFFFFF000000000000000000000000D0
:103AF80000000000000000000000000000000000BE
:103B080000000000000000000000000000000000AD
:103B1800000000000000000000000000000000009D
:103B2800000000000000000000000000000000008D
:103B3800000000000000000000000000000000007D
:0C3B4800000000001400002032547698A9
:040000050800013DB1
:00000001FF
