:020000040800F2
:1000000000C0002051020008F5210008F921000875
:10001000FD21000801220008052200080000000060
:10002000000000000000000000000000092200089D
:100030000D2200080000000011220008152200080F
:100040009D1C00089D1C00089D1C00089D1C0008AC
:100050009D1C00089D1C00089D1C00089D1C00089C
:100060009D1C00089D1C00089D1C00089D1C00088C
:100070009D1C00089D1C00089D1C00089D1C00087C
:100080009D1C00089D1C00089D1C00089D1C00086C
:100090009D1C00089D1C00089D1C00089D1C00085C
:1000A0009D1C00089D1C00089D1C00089D1C00084C
:1000B000212200089D1C00089D1C00089D1C0008B2
:1000C0009D1C00089D1C00089D1C00089D1C00082C
:1000D0009D1C00089D1C00089D1C00089D1C00081C
:1000E0009D1C00089D1C00089D1C00089D1C00080C
:1000F0009D1C00089D1C00089D1C00089D1C0008FC
:100100009D1C00089D1C00089D1C00089D1C0008EB
:100110009D1C00089D1C00089D1C00089D1C0008DB
:100120009D1C00080000000000000000000000000E
:1001300000000000000000005FF808F100B583B087
:1001400001F024FD304B314A1360314A1360314BCA
:10015000314A03E011681960043304322F498B429D
:10016000F8D32A4B1A682E4B9A4204D1284B1A68AE
:100170002C4B9A4200D0FEE7234B2B4A13602B4AAC
:1001800013602B4B02E000221A600433294A934289
:10019000F9D3254B1B6813B9244B1B6803B1FEE749
:1001A00001F000FD694601A801F0CCFC224C234B74
:1001B0001C1BA410002504E01F4B53F82530984762
:1001C0000135AC42F8DC1E4C1E4B1C1BA410002554
:1001D00004E01B4B53F8253098470135AC42F8DC5E
:1001E0000099019801F0F8FE0546174C174B1C1BAF
:1001F000A41004E0013C144B53F824309847002C21
:10020000F8DC284601F07AFCBABADECA0000002009
:100210007400002000000020602C000878000020FE
:10022000785634123254769878000020200200204C
:1002300078000020240200207C0300087C030008D2
:100240007C0300087C0300087C0300087C03000892
:1002500008B5FFF773FF00BF00BEFEE71EF0040FF6
:100260000CBFEFF30880EFF309807146364A104760
:100270002DE9F04182B004468846084B5E6B9F6BC7
:100280009D6A074801F066FCCDF800803B46324687
:100290002946204601F08AFC00BEFEE700ED00E0A2
:1002A000E02B000800BEFEE71EF0040F0CBFEFF3CA
:1002B0000880EFF309807146244A10472DE9F04188
:1002C00082B004468846084B5E6B9F6B9D6A074868
:1002D00001F040FCCDF800803B46324629462046DE
:1002E00001F064FC00BEFEE700ED00E0F02B00082A
:1002F0001EF0040F0CBFEFF30880EFF30980714686
:10030000134A10472DE9F04182B004468846084B55
:100310005E6B9F6B9D6A074801F01CFCCDF8008066
:100320003B4632462946204601F040FC00BEFEE72F
:1003300000ED00E0FC2B000800BEFEE700BEFEE77B
:1003400000BEFEE77047000071020008BD02000811
:040350000503000899
:10035400602C00080000002078000020602C0008B9
:10036400000000100000001078000020240200208B
:08037400000000100000001061
:10037C0010B50446074B1B680748A0FB03308009E7
:10038C0000F076F8002221464FF0FF3000F032F8F2
:10039C00002010BD0C000020D34D621008B50320C6
:1003AC0000F016F80020FFF7E3FF01F03FFE0020FD
:1003BC0008BD00BF024A136801331360704700BFC9
:1003CC000C010020014B1868704700BF0C01002085
:1003DC00074AD36823F4E0631B041B0C000200F4EF
:1003EC00E060184340F0BF6040F40030D0607047CC
:1003FC0000ED00E030B4164BDB68C3F30223C3F10D
:10040C000704042C28BF04241D1D062D01D9DD1E54
:10041C0000E00025012303FA04F4013C2140A9402B
:10042C00AB40013B1A400A43002806DA00F00F00EB
:10043C001201D2B2074B1A5407E01201D2B200F1EA
:10044C00604000F5614080F8002330BC704700BF6D
:10045C0000ED00E014ED00E0420900F01F00012364
:10046C0003FA00F0014B43F82200704700E100E072
:10047C000138B0F1807F0AD2064B5860F021064A51
:10048C0082F823100020986007221A607047012020
:10049C00704700BF10E000E000ED00E0042805D13B
:1004AC00054A136843F0040313607047024A13684B
:1004BC0023F004031360704710E000E0704700BFA6
:1004CC0008B5FFF7FBFF08BDF0B583B00023C2E011
:1004DC0001249C40224000F0BD804D68022D01D0CB
:1004EC00122D10D1DE08083650F826C003F007058F
:1004FC00AF000F25BD402CEA050E0D69BD404EEA3C
:10050C00050540F8265005685F000326BE40F643FB
:10051C0005EA060E4D6805F00305BD404EEA0505DB
:10052C0005604D6805F1FF3EBEF1010F03D9112D99
:10053C0001D0122D10D1856806EA050ECD68BD409C
:10054C004EEA05058560456825EA04044D68C5F347
:10055C0000159D4025434560C46826408C68BC400E
:10056C003443C4604C6814F0805F73D03D4C256AF2
:10057C0045F001052562246A04F001040194019CF4
:10058C009E08B51C384C54F8257003F00304A400E5
:10059C000F25A54027EA0507344DA84219D005F5CB
:1005AC008065A84217D005F58065A84215D005F5E1
:1005BC008065A84213D005F58065A84211D005F5D9
:1005CC008065A8420FD005F58065A8420DD106259F
:1005DC000CE000250AE0012508E0022506E00325D1
:1005EC0004E0042502E0052500E0072505FA04F4E3
:1005FC003C4302361C4D45F826401D4C2568D4431F
:10060C0005EA04064F6817F4803F01D042EA05065C
:10061C00174D2E606D6804EA05064F6817F4003F0D
:10062C0001D042EA0506124D6E60AD6804EA05067B
:10063C004F6817F4801F01D042EA05060C4DAE60DE
:10064C00ED682C404E6816F4001F01D042EA0504F8
:10065C00074AD46001330A6832FA03F47FF438AFE6
:10066C0003B0F0BD00380240000001400000024021
:10067C00000401400AB1816170470904816170472F
:10068C00002800F0A38070B5044690F83D3013F0BC
:10069C00FF0F04D1002380F83C3001F017FD00F06F
:1006AC0043FE4C4B984240F29380242384F83D3017
:1006BC002268136823F001031360474BA3FB00234C
:1006CC009B0C21684A6822F03F021A434A60256855
:1006DC002A6A22F03F02666840498E4201D80133F3
:1006EC0008E04FF4967101FB03F33D49A1FB0313A2
:1006FC009B09013313432B622568EB6923F44F43A9
:10070C0023F0FF03626835498A4208D85200B0FBD7
:10071C00F2F0C0F30B02032A2BD8042029E0A668C0
:10072C004EB902EB4201B0FBF1F1C1F30B01B1FA8E
:10073C0081F149090AE002EB820101EB8101B0FB76
:10074C00F1F1C1F30B01B1FA81F1490981B936B963
:10075C0002EB4202B0FBF2F040F4004009E002EB85
:10076C00820202EB8202B0FBF2F040F4404000E067
:10077C0001201843E86121680B6823F0C002E0698E
:10078C00236A034313430B6021688B6823F40342F1
:10079C0022F0FF022069E368034313438B60216856
:1007AC00CB6823F0FF026069A36903431343CB605A
:1007BC002268136843F00103136000202064202397
:1007CC0084F83D30206384F83E0070BD01207047F2
:1007DC00012070BD7F841E0083DE1B43A0860100B8
:1007EC00D34D6210024B186800F4C050704700BF24
:1007FC000070004030B583B0204B9B6813F0F00FB5
:10080C0020D105461D4B5B6A13F0805F02D0FFF7C9
:10081C00E9FF0FE0194C636A43F080536362636A2B
:10082C0003F080530193019BFFF7DCFF636A23F015
:10083C0080536362B0F5C05F06D1B5F5404F05D06B
:10084C00002104E0002102E0002100E0012121B19F
:10085C000B4A136843F004031360094A136823F02E
:10086C0001030B431360136803F00103994201D099
:10087C00012000E0002003B030BD00BF0038024072
:10088C00003C024070B582B00446036813F0010FBF
:10089C0000F08E80B34B9B6803F00C03082B0AD03E
:1008AC00B04B9B6803F00C030C2B1BD1AD4B9B681E
:1008BC0013F4803F16D04FF4003393FAA3F3A94BF3
:1008CC001A684FF4003393FAA3F3B3FA83F303F0EB
:1008DC001F0322FA03F313F0010F69D06368002B96
:1008EC0066D170E36368012B05D19E4A136843F40B
:1008FC00803313601FE04BB99A4B1A6822F4803294
:10090C001A601A6822F480221A6014E0052B09D1AF
:10091C00944B1A6842F480221A601A6842F48032AE
:10092C001A6008E08F4B1A6822F480321A601A6839
:10093C0022F480221A606368EBB1FFF743FD054691
:10094C0005E0FFF73FFD401B642800F23E834FF4A7
:10095C00003393FAA3F3834B1A684FF4003393FAE2
:10096C00A3F3B3FA83F303F01F0322FA03F313F098
:10097C00010FE6D01CE0FFF725FD054605E0FFF76B
:10098C0021FD401B642800F222834FF4003393FABC
:10099C00A3F3744B1A684FF4003393FAA3F3B3FA2E
:1009AC0083F303F01F0322FA03F313F0010FE6D1D4
:1009BC00236813F0020F00F093806A4B9B6803F0DE
:1009CC000C03042B0AD0674B9B6803F00C030C2B15
:1009DC0028D1644B9B6813F4803F23D1022393FAF4
:1009EC00A3F3604B1A68022393FAA3F3B3FA83F3CD
:1009FC0003F01F0322FA03F313F0010F03D0E36893
:100A0C00012B40F0E6825748436823F4F8512369E0
:100A1C004FF4F85292FAA2F2B2FA82F293400B43DC
:100A2C0043605DE0E368A3B3012292FAA2F3B3FA48
:100A3C0083F39B0003F1844303F58E031A60FFF7E5
:100A4C00C1FC054605E0FFF7BDFC401B022800F287
:100A5C00C282022393FAA3F3424B1A68022393FA3D
:100A6C00A3F3B3FA83F303F01F0322FA03F313F097
:100A7C00010FE8D03B48436823F4F85123694FF445
:100A8C00F85292FAA2F2B2FA82F293400B4343600C
:100A9C0026E0012393FAA3F3B3FA83F39B0003F14B
:100AAC00844303F58E0300221A60FFF78BFC054686
:100ABC0005E0FFF787FC401B022800F28E82022320
:100ACC0093FAA3F3274B1A68022393FAA3F3B3FA0E
:100ADC0083F303F01F0322FA03F313F0010FE8D1A1
:100AEC00236813F0100F00F0E4801E4B9B6813F08A
:100AFC000C0F72D14FF4007393FAA3F3194B1A68CD
:100B0C004FF4007393FAA3F3B3FA83F303F01F03C8
:100B1C0022FA03F313F0010F03D0A369002B00F0AA
:100B2C005E82206A0F4B5B6803F4604398421BD9CA
:100B3C00FFF760FE002840F054820A494B6823F40A
:100B4C006042236A13434B604B6823F07F40E36998
:100B5C004FF07F4292FAA2F2B2FA82F29340034330
:100B6C004B601AE000380240B6494B6823F46043EE
:100B7C00184348604B6823F07F40E3694FF07F4295
:100B8C0092FAA2F2B2FA82F2934003434B60206ACB
:100B9C00FFF730FE002840F02682236A4FF46042B3
:100BAC0092FAA2F2B2FA82F2D3405A1C4FF40043EA
:100BBC009340A44A926802F0F001F02292FAA2F259
:100BCC00B2FA82F221FA02F29F498A5CD3409F4A20
:100BDC0013600020FFF7CCFB6BE0A369002B3ED029
:100BEC004FF4807393FAA3F3B3FA83F39B0003F1EE
:100BFC00844303F58E0301221A60FFF7E3FB0546DD
:100C0C0005E0FFF7DFFB401B022800F2EE814FF4FA
:100C1C00007393FAA3F38B4B1A684FF4007393FA97
:100C2C00A3F3B3FA83F303F01F0322FA03F313F0D5
:100C3C00010FE6D083494B6823F46042236A1343C7
:100C4C004B604B6823F07F40E3694FF07F4292FA90
:100C5C00A2F2B2FA82F2934003434B6029E04FF4C4
:100C6C00807393FAA3F3B3FA83F39B0003F18443E9
:100C7C0003F58E0300221A60FFF7A4FB054605E07E
:100C8C00FFF7A0FB401B022800F2B1814FF4007368
:100C9C0093FAA3F36B4B1A684FF4007393FAA3F314
:100CAC00B3FA83F303F01F0322FA03F313F0010FDB
:100CBC00E6D1236813F0080F47D0636913B3012200
:100CCC0092FAA2F3B3FA83F3614941F82320FFF7B8
:100CDC0079FB054605E0FFF775FB401B022800F287
:100CEC008881022393FAA3F2564A526B93FAA3F328
:100CFC00B3FA83F303F01F0322FA03F313F0010F8B
:100D0C00E9D022E0012393FAA3F3B3FA83F3002191
:100D1C004F4A42F82310FFF755FB054605E0FFF755
:100D2C0051FB401B022800F26681022393FAA3F2C6
:100D3C00444A526B93FAA3F3B3FA83F303F01F0301
:100D4C0022FA03F313F0010FE9D1236813F0040F17
:100D5C0000F0A1803B4B5B6A13F0805F0BD1394BE9
:100D6C005A6A42F080525A625B6A03F080530193D4
:100D7C00019B012500E00025364B1B6813F4807F96
:100D8C0013D1344A136843F480731360FFF71AFBD2
:100D9C00064605E0FFF716FB801B642800F22D8148
:100DAC002C4B1B6813F4807FF4D0A368012B05D166
:100DBC00244A536B43F4807353631FE04BB9214BAC
:100DCC005A6B22F480725A635A6B22F480625A6313
:100DDC0014E0052B09D11B4B5A6B42F480625A6309
:100DEC005A6B42F480725A6308E0164B5A6B22F429
:100DFC0080725A635A6B22F480625A63A368EBB117
:100E0C00FFF7E0FA064607E0FFF7DCFA801B41F239
:100E1C008833984200F2F3804FF4007393FAA3F2F4
:100E2C00084A526B93FAA3F3B3FA83F303F01F034C
:100E3C0022FA03F313F0010FE6D026E0FFF7C2FA13
:100E4C00064611E0003802400C2C00080C00002073
:100E5C008006474200700040FFF7B4FA801B41F255
:100E6C008833984200F2CD804FF4007393FAA3F2CA
:100E7C006A4A526B93FAA3F3B3FA83F303F01F039A
:100E8C0022FA03F313F0010FE6D125B1634A536A3A
:100E9C0023F080535362636A002B00F0B4805F4AE6
:100EAC00926802F00C020C2A00F0AF80022B5FD18A
:100EBC004FF0807393FAA3F3B3FA83F39B0003F11F
:100ECC00844303F58E0300221A60FFF77BFA054674
:100EDC0005E0FFF777FA401B022800F298804FF0EC
:100EEC00007393FAA3F34D4B1A684FF0007393FA07
:100EFC00A3F3B3FA83F303F01F0322FA03F313F003
:100F0C00010FE6D14548836823F47D01A26AE36AA8
:100F1C001343226B13430B4383604FF0807393FA9C
:100F2C00A3F3B3FA83F39B0003F1844303F58E031D
:100F3C0001221A60FFF746FA044604E0FFF742FA72
:100F4C00001B022865D84FF0007393FAA3F3334BC0
:100F5C001A684FF0007393FAA3F3B3FA83F303F018
:100F6C001F0322FA03F313F0010FE7D0002053E024
:100F7C004FF0807393FAA3F3B3FA83F39B0003F15E
:100F8C00844303F58E0300221A60FFF71BFA044614
:100F9C0004E0FFF717FA001B02283CD84FF000734F
:100FAC0093FAA3F31D4B1A684FF0007393FAA3F353
:100FBC00B3FA83F303F01F0322FA03F313F0010FC8
:100FCC00E7D1002028E0012026E0032024E00320C4
:100FDC0022E0012020E003201EE003201CE0012081
:100FEC001AE0012018E0012016E0032014E0032091
:100FFC0012E0032010E003200EE003200CE003209D
:10100C000AE0032008E0002006E0012004E00320B1
:10101C0002E0032000E0032002B070BD0038024063
:10102C00234B9B6803F00C02082A3ED00C2A03D0F9
:10103C00042A28D11F48704703F470114FF4701222
:10104C0092FAA2F2B2FA82F221FA02F21A49895CFD
:10105C0003F440034FF4400090FAA0F0B0FA80F093
:10106C00C3400133124A926812F4803F05D01348F2
:10107C0000FB01F0B0FBF3F070470E4A02FB01F0ED
:10108C00B0FBF3F070470A4B586800F460434FF420
:10109C00604090FAA0F0B0FA80F023FA00F0013032
:1010AC004FF4004303FA00F070470448704700BF48
:1010BC00003802400024F400242C000800366E0195
:1010CC0070B5924B1B6803F001038B4212D20129BD
:1010DC0004D18E4A136843F0040313608B4A1368DF
:1010EC0023F001030B431360136803F001039942CF
:1010FC0040F0F780036813F0020F06D0844CA3680D
:10110C0023F0F00283681343A3600D460446036882
:10111C0013F0010F00F09F804368022B13D14FF4A2
:10112C00003292FAA2F27A4A11684FF4003292FA23
:10113C00A2F2B2FA82F202F01F0221FA02F212F0CB
:10114C00010F3ED1CFE0032B13D14FF0007292FA76
:10115C00A2F26F4A11684FF0007292FAA2F2B2FA40
:10116C0082F202F01F0221FA02F212F0010F28D1D2
:10117C00BBE0012B11D1022292FAA2F2644A11684F
:10118C00022292FAA2F2B2FA82F202F01F0221FAC1
:10119C0002F212F0010F14D1A9E04FF4007292FA8E
:1011AC00A2F25B4A11684FF4007292FAA2F2B2FA00
:1011BC0082F202F01F0221FA02F212F0010F00F08B
:1011CC00988053498A6822F0030213438B60FFF71F
:1011DC00F9F806466368022B0FD107E0FFF7F2F827
:1011EC00801B41F28833984200F28580484B9B6803
:1011FC0003F00C03082BF1D12DE0032B0ED106E0EC
:10120C00FFF7E0F8801B41F28833984275D8404BC9
:10121C009B6803F00C030C2BF2D11CE0012B15D1B5
:10122C0006E0FFF7CFF8801B41F28833984266D86E
:10123C00374B9B6803F00C03042BF2D10BE0FFF748
:10124C00C1F8801B41F2883398425AD8304B9B68C6
:10125C0013F00C0FF3D12D4B1B6803F001039D42CF
:10126C0011D2012D04D1294A136843F004031360F1
:10127C00264A136823F001032B431360136803F011
:10128C0001039D423FD1236813F0040F06D020497F
:10129C008B6823F4E062E36813438B60236813F0DC
:1012AC00080F07D01A4A936823F46053216943EA64
:1012BC00C1039360FFF7B4FE154B9B6803F0F0027B
:1012CC00F02393FAA3F3B3FA83F322FA03F3114A4C
:1012DC00D35CD840104B18600020FFF749F8002071
:1012EC0070BD012070BD012070BD012070BD0120BA
:1012FC0070BD012070BD032070BD032070BD0320A4
:10130C0070BD032070BD012070BD00BF003C0240C9
:10131C00003802400C2C00080C000020014B18680F
:10132C00704700BF0C00002008B5FFF7F7FF084B13
:10133C009B6803F4E0624FF4E06393FAA3F3B3FA0F
:10134C0083F322FA03F3034AD35CD84008BD00BFF1
:10135C00003802401C2C000808B5FFF7DFFF084BD3
:10136C009B6803F460524FF4605393FAA3F3B3FAFF
:10137C0083F322FA03F3034AD35CD84008BD00BFC1
:10138C00003802401C2C00080368B0F1804F0ED0CE
:10139C001C4A90420BD002F58062904207D002F5B5
:1013AC008062904203D002F57C42904203D123F03C
:1013BC0070034A681343B0F1804F16D0114A904223
:1013CC0013D002F5806290420FD002F580629042F9
:1013DC000BD002F57C42904207D002F5806290421D
:1013EC0003D002F58062904203D123F44073CA68A3
:1013FC00134303608B68C3620B68836201234361F0
:10140C00704700BF0004004010B4036A046A24F063
:10141C0001040462846924F0F00444EA021223F00B
:10142C000A0319438261016210BC704710B4036A4D
:10143C0023F0100303628469036A24F4704444EAC1
:10144C00023223F0A00343EA01118261016210BC55
:10145C00704700BF836823F0700341F00701194304
:10146C008160704710B4846824F47F4442EA0323FB
:10147C00194344EA0103836010BC7047B8B110B53E
:10148C00044690F8353013F0FF0F04D1002380F898
:10149C00343000F045FE022384F83530211D2068DD
:1014AC00FFF772FF012384F83530002010BD0120B6
:1014BC00704700BF0268D36843F00103D360026831
:1014CC00136843F0010313600020704790F8343028
:1014DC00012B00F0838010B50446012380F83430D2
:1014EC00022380F835300268936823F47F4323F09D
:1014FC00770393600B68402B4CD00AD8102B58D034
:10150C0002D8002B50D062E0202B57D0302B5AD071
:10151C005DE0702B12D004D8502B27D0602B2FD02D
:10152C0055E0B3F5805F03D0B3F5005F12D04EE009
:10153C000268936823F00703936048E0CB684A681D
:10154C0089680068FFF78EFF2268936843F0770381
:10155C0093603CE0CB684A6889680068FFF782FFBB
:10156C002268936843F48043936030E0CA6849680A
:10157C000068FFF749FF50212068FFF76BFF26E05A
:10158C00CA6849680068FFF751FF60212068FFF7BF
:10159C0061FF1CE0CA6849680068FFF735FF40210D
:1015AC002068FFF757FF12E000210068FFF752FF99
:1015BC000DE010210068FFF74DFF08E020210068C6
:1015CC00FFF748FF03E030210068FFF743FF0123DA
:1015DC0084F83530002084F8340010BD02207047A8
:1015EC00704700BF704700BF704700BF704700BF17
:1015FC0010B5044603681A6912F0020F17D0DA68A6
:10160C0012F0020F13D06FF002021A61012303755E
:10161C0003689B6913F0030F02D0FFF7E3FF04E0AC
:10162C00FFF7DEFF2046FFF7DFFF0023237523685B
:10163C001A6912F0040F19D0DA6812F0040F15D0E1
:10164C006FF004021A610223237523689B6913F45B
:10165C00407F03D02046FFF7C5FF05E02046FFF78B
:10166C00BFFF2046FFF7C0FF0023237523681A69CC
:10167C0012F0080F19D0DA6812F0080F15D06FF0BD
:10168C0008021A61042323752368DB6913F0030F26
:10169C0003D02046FFF7A6FF05E02046FFF7A0FF8A
:1016AC002046FFF7A1FF0023237523681A6912F067
:1016BC00100F19D0DA6812F0100F15D06FF010025D
:1016CC001A61082323752368DB6913F4407F03D068
:1016DC002046FFF787FF05E02046FFF781FF2046F5
:1016EC00FFF782FF0023237523681A6912F0010F9C
:1016FC0009D0DA6812F0010F05D06FF001021A61FF
:10170C00204600F0A3FB23681A6912F0400F09D0A1
:10171C00DA6812F0400F05D06FF040021A612046D3
:10172C00FFF764FF10BD00BF90F83430012B21D0BF
:10173C0030B4012280F83420022380F8353004685C
:10174C00636823F070036360046865680B682B435F
:10175C0063600468A36823F08003A3600468A56831
:10176C004B682B43A36080F83520002380F834307D
:10177C00184601E00220704730BC70472DE9F84351
:10178C00044601680B6923F44052C36813430B6190
:10179C0081680369194343691943C3691943006894
:1017AC00C26822F4164323F00C030B43C360216878
:1017BC004B6923F44072A36913434B61E369B3F59E
:1017CC00004F40F0B2802768AF4B9F4255D1FFF7D6
:1017DC00C3FD00EB800000EB800065686D00B0FB82
:1017EC00F5F5AA4EA6FB05356D092D01FFF7B4FDE5
:1017FC0000EB800000EB800063685B00B0FBF3F94A
:10180C00FFF7AAFD00EB800000EB800063685B0033
:10181C00B0FBF3F3A6FB03235B094FF0640808FB52
:10182C001393DB003233A6FB03235B095B0003F449
:10183C00F8731D44FFF790FD00EB800000EB800077
:10184C0063685B00B0FBF3F9FFF786FD00EB8000EB
:10185C0000EB800063685B00B0FBF3F3A6FB032393
:10186C005B0908FB1393DB003233A6FB0336C6F38C
:10187C0042163544BD60BDE8F883FFF755FD00EB1B
:10188C00800000EB800065686D00B0FBF5F57F4EC5
:10189C00A6FB05356D092D01FFF746FD00EB800019
:1018AC0000EB800063685B00B0FBF3F9FFF73CFDD5
:1018BC0000EB800000EB800063685B00B0FBF3F38F
:1018CC00A6FB03235B094FF0640808FB1393DB00B2
:1018DC003233A6FB03235B095B0003F4F8731D444E
:1018EC00FFF722FD00EB800000EB800063685B00DB
:1018FC00B0FBF3F9FFF718FD00EB800000EB800064
:10190C0063685B00B0FBF3F3A6FB03235B0908FBE6
:10191C0013984FEAC80808F13208A6FB0836C6F33C
:10192C0042163544BD60BDE8F8832668564B9E428E
:10193C0054D1FFF711FD00EB800000EB80006568CF
:10194C00AD00B0FBF5F5514FA7FB05356D092D0129
:10195C00FFF702FD00EB800000EB800063689B004A
:10196C00B0FBF3F8FFF7F8FC00EB800000EB800015
:10197C0063689B00B0FBF3F3A7FB03235B094FF0F9
:10198C00640909FB13831B013233A7FB03235B0997
:10199C0003F0F0031D44FFF7DFFC00EB800000EBCD
:1019AC00800063689B00B0FBF3F8FFF7D5FC00EBFD
:1019BC00800000EB800063689B00B0FBF3F3A7FB97
:1019CC0003235B0909FB13831B013233A7FB03239E
:1019DC00C3F343131D44B560BDE8F883FFF7A4FCC3
:1019EC0000EB800000EB80006568AD00B0FBF5F506
:1019FC00264FA7FB05356D092D01FFF795FC00EB74
:101A0C00800000EB800063689B00B0FBF3F8FFF7ED
:101A1C008BFC00EB800000EB800063689B00B0FB4C
:101A2C00F3F3A7FB03235B094FF0640909FB138352
:101A3C001B013233A7FB03235B0903F0F0031D44A6
:101A4C00FFF772FC00EB800000EB800063689B00EA
:101A5C00B0FBF3F8FFF768FC00EB800000EB8000B4
:101A6C0063689B00B0FBF3F3A7FB03235B0909FB43
:101A7C0013831B013233A7FB0323C3F343131D440E
:101A8C00B560BDE8F88300BF003801401F85EB51FD
:101A9C0058B310B5044690F8393013F0FF0F04D149
:101AAC00002380F8383000F059FB022384F83930D9
:101ABC002268D36823F40053D3602046FFF75EFE00
:101ACC002268136923F4904313612268536923F04D
:101ADC002A0353612268D36843F40053D360002077
:101AEC00E063012384F8393010BD0120704700BF3A
:101AFC00FEE700BF08B50D4B1B6813B90C4A0B4B26
:101B0C001A600A4B1A68C31C23F0030313440949D7
:101B1C008B4206D900F086FB0C2303604FF0FF309C
:101B2C0008BD02490B60104608BD00BF7C000020B8
:101B3C002402002000BC002001230360014B0B6039
:101B4C00704700BF040000200FB400B583B004AB95
:101B5C0053F8042B01938021064800F09FFB0028CA
:101B6C0003DD0146034800F007F803B05DF804EB11
:101B7C0004B07047840000204FF0FF30704700BF66
:101B8C0008B500F087F8024B024A9A6008BD00BF06
:101B9C0000ED00E00000000808B500F09FF808BD5B
:101BAC00F8B504460D4617461E462648FFF7CCFFEF
:101BBC0021682548FFF7C8FF61682448FFF7C4FF78
:101BCC00A1682348FFF7C0FFE1682248FFF7BCFF7C
:101BDC0021692148FFF7B8FF61692048FFF7B4FF7E
:101BEC00A1691F48FFF7B0FFE1691E48FFF7ACFF82
:101BFC001D48FFF7A9FF29461C48FFF7A5FF1C4C01
:101C0C00E16A1C48FFF7A0FF216B1B48FFF79CFF04
:101C1C00E16B1A48FFF798FF15F0800F03D0394697
:101C2C001748FFF791FF15F4004F03D031461548C4
:101C3C00FFF78AFF1448FFF787FF06991348FFF751
:101C4C0083FFF8BDC42A0008D42A0008E42A00083F
:101C5C00F42A0008042B0008142B0008242B00087D
:101C6C00342B0008442B0008542B0008602B000870
:101C7C0000ED00E0702B0008802B0008902B000872
:101C8C00A02B0008B02B0008C02B0008C82B0008A4
:101C9C00FEE700000E4B1A6842F480721A609968D5
:101CAC000C4A0A409A601A6822F0885222F00112FB
:101CBC001A601A6822F480221A609A6822F47D0253
:101CCC009A600022DA604FF00062034B9A60704712
:101CDC00003802400CC0FF8800ED00E02B4B9B68E5
:101CEC0003F00C030C2B3AD8DFE803F00739393931
:101CFC0013393939173939391B00244B5B68C3F355
:101D0C00423301334FF4004202FA03F3204A1360CA
:101D1C0030E0204A1E4B1A602CE01E4A1C4B1A6005
:101D2C0028E01A4A91689368C1F383411A48405CD1
:101D3C00C3F381530133926812F4803F07D11549E4
:101D4C0001FB00F2B2FBF3F3114A136012E0114AEB
:101D5C0002FB00F2B2FBF3F30D4A13600AE00B4BEB
:101D6C005B68C3F3423301334FF4004202FA03F3CE
:101D7C00074A1360054B9B68C3F30313074AD15CF6
:101D8C00034A1368CB401360704700BF0038024011
:101D9C000C00002000127A00242C00080C2C0008E7
:101DAC0070B588B0254BDA6942F00402DA61DA6961
:101DBC0002F004020092009ADA6942F00102DA6140
:101DCC00DA6902F001020192019ADA6942F0020228
:101DDC00DA61DB6903F002030293029B184D0022C7
:101DEC0049F2E0012846FEF745FC4FF400560396F5
:101DFC0000240494059403A91248FEF765FB49F2EC
:101E0C00E0030393012304930594069403A9284645
:101E1C00FEF75AFB4FF4006303930B4B04930594AA
:101E2C0003A92846FEF750FB03960494059403A9D6
:101E3C002846FEF749FB08B070BD00BF00380240D1
:101E4C00000002400008024000001110704700BF63
:101E5C00FEE700BF08B50A480A4B03600A4B436013
:101E6C0000238360C3604FF480420261436183614D
:101E7C00C3610362FEF704FC08B1FFF7E9FF08BD7C
:101E8C001401002000540040A086010008B50A4847
:101E9C000A4B03604FF4E133436000238360C3605B
:101EAC0003610C2242618361C361FFF7F1FD08B14C
:101EBC00FFF7CEFF08BD00BF6801002000380140CD
:101ECC0008B50A480A4B03604FF4E1334360002322
:101EDC008360C36003610C2242618361C361FFF7BD
:101EEC00D7FD08B1FFF7B4FF08BD00BFE00100202B
:101EFC000044004000B587B014484FF080430360A5
:101F0C004FF4FA6343600023836040F2F312C26023
:101F1C000361FFF7B3FA08B1FFF79AFF06A94FF474
:101F2C00805341F8103D0948FFF7D0FA08B1FFF78C
:101F3C008FFF00230093019369460448FFF7F4FBDD
:101F4C0008B1FFF785FF07B05DF804FBA80100207E
:101F5C0000B593B01B4A136823F4C05343F40063D9
:101F6C0013601023059301230B9300230C934FF460
:101F7C0020420D920E9305A8FEF784FC08B1FFF7E2
:101F8C0067FF0F23009300210191029103910491AB
:101F9C006846FFF795F808B1FFF75AFFFFF7BEF94F
:101FAC00094BA3FB00308009FEF762FA0420FEF710
:101FBC0075FA002211464FF0FF30FEF71BFA13B0F2
:101FCC005DF804FB00700040D34D621010B582B078
:101FDC00FEF7E4F9FFF7BCFFFFF7E2FEFFF73AFF6D
:101FEC00FFF754FFFFF76CFFFFF784FFFFF782FF4B
:101FFC000C4B5A6A42F001025A625B6A03F001030D
:10200C000193019B002211461C20FEF7F3F91C20C2
:10201C00FEF722FA044C2046FFF730FA2046FFF771
:10202C0049FAFEE700380240A801002000B585B04F
:10203C00254B5A6A42F000425A625A6A02F0004238
:10204C000192019A1A6A42F001021A621A6A02F0AB
:10205C0001020292029A5A6A42F080525A625B6AF8
:10206C0003F080530393039B0320FEF7B1F9002286
:10207C0011466FF00B00FEF7BDF9002211466FF010
:10208C000A00FEF7B7F9002211466FF00900FEF7BF
:10209C00B1F9002211466FF00400FEF7ABF90022F3
:1020AC0011466FF00300FEF7A5F9002211466FF000
:1020BC000100FEF79FF9002211464FF0FF30FEF7AA
:1020CC0099F905B05DF804FB003802400268114B29
:1020DC009A421DD100B587B0C023019312230293FD
:1020EC000123039303230493042305930DEB0301B2
:1020FC000948FEF7E9F9094B5A6A42F400125A6290
:10210C005B6A03F400130093009B07B05DF804FBBB
:10211C00704700BF005400400004024000380240E9
:10212C000368B3F1804F17D100B583B003F50E33BC
:10213C005A6A42F001025A625B6A03F0010301938E
:10214C00019B002211461C20FEF754F91C20FEF7BF
:10215C0083F903B05DF804FB704700BF00B589B08C
:10216C0003681D4A934219D11C4B1A6A42F48042EF
:10217C001A621B6A03F480430193019B4FF4C06302
:10218C00039302230493012305930323069307234C
:10219C00079303A91248FEF797F91AE0114A9342E4
:1021AC0017D10E4B5A6A42F400325A625B6A03F43E
:1021BC0000330293029B0C23039302230493012309
:1021CC000593032306930723079303A90448FEF7FB
:1021DC007BF909B05DF804FB00380140003802407F
:1021EC000000024000440040704700BFFEE700BF03
:1021FC00FEE700BFFEE700BFFEE700BF704700BF71
:10220C00704700BF704700BF08B5FEF7D3F8FEF764
:10221C0057F908BD08B50248FFF7EAF908BD00BF39
:10222C00A8010020014B1868704700BF7000002007
:10223C0010B5431E0A44914204D011F8014B03F827
:10224C00014FF8E710BD30B5141E05469BB018467B
:10225C0004DA8B232B604FF0FF301DE04FF4027338
:10226C00ADF80C300CBF234604F1FF3302930593F9
:10227C004FF6FF7300910491ADF80E3002461E9B91
:10228C006946284600F072F8431CBCBF8B232B60B8
:10229C0014B1009B00221A701BB030BD07B500931F
:1022AC0013460A46014603480068FFF7CCFF03B00B
:1022BC005DF804FB700000202DE9F0478E68824623
:1022CC009E420C46914698463ED88A8912F4906FED
:1022DC003AD02568096902236F1A656905EB450533
:1022EC0095FBF3F57B1C43449D4238BF1D465305BB
:1022FC000FD5294600F040FB064698B13A462169B5
:10230C00FFF796FFA38923F4906343F08003A38126
:10231C0013E02A4600F08EFB064670B92169504640
:10232C0000F0DEFA0C23CAF80030A3894FF0FF301E
:10233C0043F04003A381BDE8F08726613E4426604C
:10234C0046466561ED1BA560464528BF4646494695
:10235C003246206800F0A8FAA36800209B1BA360FB
:10236C0023681E442660BDE8F08700002DE9F04F7D
:10237C009DB003938B8980461C060D4616460DD5E1
:10238C000B695BB9402100F0F7FA2860286118B995
:10239C000C23C8F80030CDE040236B610023099377
:1023AC0020238DF82930DFF89CB130238DF82A30AA
:1023BC0037463C4614F8013B1BB9B7EB060910D065
:1023CC0003E0252BF9D02746F3E74B463246294646
:1023DC004046FFF771FF013000F0A780099B4B448A
:1023EC0009933B78002B00F0A08000234FF0FF32C4
:1023FC0004930793059206938DF853301A93012694
:10240C00052221784E4800F041FA671C049B38B134
:10241C004B4A3C46801A06FA00F018430490EFE74A
:10242C00D90644BF20228DF853201A0744BF2B2213
:10243C008DF8532022782A2A03D0079A00210A20EB
:10244C000BE0039A111D12680391002A10DA524214
:10245C0043F00200079204900BE027463B780134CE
:10246C00303B092B03D800FB02320121F5E701B107
:10247C0007923B782E2B1ED17B782A2B0AD1039BFB
:10248C0002371A1D1B680392002BB8BF4FF0FF33A5
:10249C00059310E0002319460593781C0A2407467F
:1024AC003A780130303A092A03D804FB0121012380
:1024BC00F5E703B1059103223978224800F0E6F9DB
:1024CC0040B14023CBEB000003FA00F0049B013732
:1024DC0018430490397806221B487E1C8DF828106E
:1024EC0000F0D4F988B1194B33B9039B073323F0AF
:1024FC0007030833039314E003AB00932A46144BF1
:10250C0004A94046AFF3008007E003AB00932A46D2
:10251C000F4B04A9404600F093F8B0F1FF3F824600
:10252C0003D0099B5344099342E7AB895B0601D462
:10253C00099801E04FF0FF301DB0BDE8F08F00BFEF
:10254C002D2C0008332C0008372C0008000000004C
:10255C00C52200082DE9F04791461F460A698B6891
:10256C0006469342B8BF1346C9F8003091F8432091
:10257C000C46DDF8208012B10133C9F80030236815
:10258C00990642BFD9F800300233C9F800302568EB
:10259C0015F0060510D104F1190A07E00123524683
:1025AC0039463046C04701301AD00135E368D9F8B6
:1025BC0000209B1A9D42F1DB94F8433022680033D3
:1025CC0018BF012392060FD5E118302081F8430083
:1025DC005A1C94F845102244023382F8431003E04D
:1025EC004FF0FF30BDE8F08704F143023946304626
:1025FC00C0470130F4D02268D9F80050E36802F0EB
:10260C000602042A08BF5D1B2269A3680CBF25EAD9
:10261C00E57500259342C4BF9B1AED184FF00009D5
:10262C001A344D4509D00123224639463046C0475D
:10263C000130D5D009F10109F3E70020BDE8F0879E
:10264C002DE9F04317460A7E85B06E2A9846064659
:10265C000C460C9B01F1430E00F0AE8011D8632A9E
:10266C0022D009D8002A00F0BB80582A40F0CA803A
:10267C0081F84520834955E0642A1ED0692A1CD074
:10268C00C0E0732A00F0B08009D86F2A2ED0702ACF
:10269C0040F0B8800A6842F020020A603EE0752AD9
:1026AC0024D0782A3AD0ADE01A6801F14205111D08
:1026BC001960136884F84230A8E021681A6811F098
:1026CC00800F02D0111D196008E011F0400F02F1CB
:1026DC000401196002D0B2F9003000E01368002B3D
:1026EC003CDA2D225B4284F8432037E021681A68DB
:1026FC0011F0800F02D0111D196007E011F0400F8E
:10270C0002F10401196001D0138800E01368227EE5
:10271C005C496F2A14BF0A2208221BE078225A490E
:10272C0084F845202268186812F0800F00F1040527
:10273C001D6003D1550601D5038800E00368D0075E
:10274C0044BF42F0200222601BB9226822F0200212
:10275C0022601022002084F8430001E049490A223B
:10276C006568002DA56008DB206820F0040020605F
:10277C002BB9002D7DD175460CE0002B79D0754618
:10278C00B3FBF2F002FB1033CB5C05F8013D0346C2
:10279C000028F5D1082A0BD12368DA0708D523695C
:1027AC0062689A42DEBF302305F8013C05F1FF3523
:1027BC00C5EB0E0323612EE008681A6810F0800F39
:1027CC00496903D0101D1860136808E010F0400F21
:1027DC0002F104001860136801D0198000E0196040
:1027EC0000232361754616E01A68111D19601568DF
:1027FC0000216268284600F049F808B1401B60606F
:10280C00636804E004F1420584F84220012323614B
:10281C00002384F84330CDF800803B4603AA2146C0
:10282C003046FFF797FE013002D14FF0FF3026E023
:10283C0023692A4639463046C0470130F5D0236813
:10284C009B0710D5002504F1190907E001234A461E
:10285C0039463046C0470130E7D00135E368039A6A
:10286C009B1A9D42F2DBE068039B9842B8BF184666
:10287C0005E00B7804F1420584F842308AE705B094
:10288C00BDE8F0833E2C00084F2C000810B5C9B2EF
:10289C0002449042034605D01C7801308C42F8D19A
:1028AC00184610BD002010BD884210B501EB020384
:1028BC0001D8421E0BE09842FBD28118D21AD342A7
:1028CC0004D013F8014D01F8014DF8E710BD994201
:1028DC0004D011F8014B02F8014FF8E710BD0000CD
:1028EC0038B50546002944D051F8043C0C1F002B88
:1028FC00B8BFE41800F0D4F81E4A1368114613B997
:10290C006360146030E0A3420DD92268A0188342A2
:10291C0001BF18685B681218226063600C6023E0CA
:10292C00A24203D813465A68002AF9D1186819181C
:10293C00A1420BD12168014458188242196013D16D
:10294C0010685268014419605A600DE002D90C23DA
:10295C002B6009E021686018824201BF1068526840
:10296C000918216062605C602846BDE8384000F0C0
:10297C0098B838BD0801002070B5CD1C25F00305B2
:10298C0008350C2D38BF0C25002D064601DBA9425D
:10299C0002D90C23336046E000F082F8234B1C680C
:1029AC001A462146A1B10B685B1B0ED40B2B03D925
:1029BC000B60CC18CD501EE08C420BBF63684B688B
:1029CC001360636018BF0C4615E00C464968E9E7D4
:1029DC00174C23681BB9304600F052F8206029468A
:1029EC00304600F04DF8431C18D0C41C24F00304EE
:1029FC00A0420DD12560304600F053F804F10B00D5
:102A0C00231D20F00700C31A0ED05A42E25070BDAD
:102A1C00211A304600F034F80130EBD10C2333602E
:102A2C00304600F03EF8002070BD00BF08010020C9
:102A3C0004010020F8B5074615460E4621B911468B
:102A4C00BDE8F840FFF798BF1AB9FFF749FF2846D1
:102A5C00F8BD00F027F885420ED929463846FFF715
:102A6C008BFF044650B131462A46FFF7E1FB314655
:102A7C003846FFF735FF01E03046F8BD2046F8BD7B
:102A8C0038B5064C0023054608462360FFF732F89C
:102A9C00431C02D1236803B12B6038BD1001002008
:102AAC007047704751F8040C0028BEBF091851F844
:102ABC00043CC01804387047537461636B20667211
:102ACC00616D653A0A000000205230203D2020251F
:102ADC003038580A00000000205231203D202025BB
:102AEC003038580A00000000205232203D202025AA
:102AFC003038580A00000000205233203D20202599
:102B0C003038580A0000000020523132203D202578
:102B1C003038580A00000000204C52203D2020255F
:102B2C003038580A00000000205043203D2020255A
:102B3C003038580A0000000020505352203D202508
:102B4C003038580A000000004653522F4641523A82
:102B5C000A0000002043465352203D2020253038E7
:102B6C00580A00002048465352203D20202530387A
:102B7C00580A00002044465352203D20202530386E
:102B8C00580A00002041465352203D202025303861
:102B9C00580A0000204D4D464152203D202530382A
:102BAC00580A00002042464152203D202025303852
:102BBC00580A00004D6973630A000000204C522F24
:102BCC004558435F52455455524E3D202530385898
:102BDC000A0000005B486172644661756C745D0AA2
:102BEC00000000005B4275734661756C745D0A00F1
:102BFC005B55736167654661756C745D0A00000016
:102C0C000000000000000000010203040607080990
:102C1C000000000001020304030406080C10182035
:102C2C0030232D302B2000686C4C006566674546C0
:102C3C00470030313233343536373839414243442A
:102C4C0045460030313233343536373839616263BA
:042C5C006465660045
:102C600078563412800000200000000068FF1F002A
:102C70000000000000000000000000000000000054
:102C80000000000000000000000000000000000044
:102C90000000000000000000000000000000000034
:102CA0000000000000000000000000000000000024
:102CB0000000000000000000000000000000000014
:102CC0000000000000000000000000000000000004
:082CD000100000203254769838
:040000050800013DB1
:00000001FF
