:020000040800F2
:1000000000C0002051020008C52D0008C92D0008BD
:10001000CD2D0008D12D0008D52D000800000000CE
:10002000000000000000000000000000D92D0008C2
:10003000DD2D000800000000E12D0008E52D00087E
:100040007923000879230008792300087923000820
:100050007923000879230008792300087923000810
:100060007923000879230008792300087923000800
:1000700079230008792300087923000879230008F0
:1000800079230008792300087923000879230008E0
:1000900079230008792300087923000879230008D0
:1000A00079230008792300087923000879230008C0
:1000B00079230008792300087923000879230008B0
:1000C00079230008792300087923000879230008A0
:1000D0007923000879230008792300087923000890
:1000E000F12D0008792300087923000879230008FE
:1000F0007923000879230008792300087923000870
:10010000792300087923000879230008792300085F
:10011000792300087923000879230008792300084F
:10012000792300080000000000000000000000002B
:1001300000000000000000005FF808F100B583B087
:1001400002F092F8304B314A1360314A1360314B60
:10015000314A03E011681960043304322F498B429D
:10016000F8D32A4B1A682E4B9A4204D1284B1A68AE
:100170002C4B9A4200D0FEE7234B2B4A13602B4AAC
:1001800013602B4B02E000221A600433294A934289
:10019000F9D3254B1B6813B9244B1B6803B1FEE749
:1001A00002F06EF8694601A802F03AF8224C234B9F
:1001B0001C1BA410002504E01F4B53F82530984762
:1001C0000135AC42F8DC1E4C1E4B1C1BA410002554
:1001D00004E01B4B53F8253098470135AC42F8DC5E
:1001E0000099019802F0B0FC0546174C174B1C1BF8
:1001F000A41004E0013C144B53F824309847002C21
:10020000F8DC284601F0E8FFBABADECA0000002098
:100210007800002000000020D03F00087C00002073
:10022000785634123254769880000020380200202C
:10023000800000203C0200207C0300087C030008B2
:100240007C0300087C0300087C0300087C03000892
:1002500008B5FFF773FF00BF00BEFEE71EF0040FF6
:100260000CBFEFF30880EFF309807146364A104760
:100270002DE9F04182B004468846084B5E6B9F6BC7
:100280009D6A074801F0D4FFCDF800803B46324616
:100290002946204601F0F8FF00BEFEE700ED00E031
:1002A000503F000800BEFEE71EF0040F0CBFEFF346
:1002B0000880EFF309807146244A10472DE9F04188
:1002C00082B004468846084B5E6B9F6B9D6A074868
:1002D00001F0AEFFCDF800803B463246294620466D
:1002E00001F0D2FF00BEFEE700ED00E0603F000835
:1002F0001EF0040F0CBFEFF30880EFF30980714686
:10030000134A10472DE9F04182B004468846084B55
:100310005E6B9F6B9D6A074801F08AFFCDF80080F5
:100320003B4632462946204601F0AEFF00BEFEE7BE
:1003300000ED00E06C3F000800BEFEE700BEFEE7F7
:1003400000BEFEE77047000071020008BD02000811
:040350000503000899
:10035400D03F0008000000207C000020D03F0008AF
:100364000000001000000010800000203C0200206B
:08037400000000100000001061
:10037C0010B50446074B1B680748A0FB03308009E7
:10038C0000F092F8002221464FF0FF3000F040F8C8
:10039C00002010BD0C000020D34D621008B50320C6
:1003AC0000F024F80020FFF7E3FF02F045FC0020EA
:1003BC0008BD00BF024A136801331360704700BFC9
:1003CC0030010020014B1868704700BF300100203D
:1003DC0010B582B00190FFF7F5FF0446FFF7F2FF6E
:1003EC00001B019B9842F9D302B010BD074AD36899
:1003FC0023F4E0631B041B0C000200F4E0601843C0
:10040C0040F0BF6040F40030D060704700ED00E079
:10041C0030B4164BDB68C3F30223C3F10704042C7E
:10042C0028BF04241D1D062D01D9DD1E00E000256A
:10043C00012303FA04F4013C2140A940AB40013BE9
:10044C001A400A43002806DA00F00F001201D2B25B
:10045C00074B1A5407E01201D2B200F1604000F5CC
:10046C00614080F8002330BC704700BF00ED00E015
:10047C0014ED00E0420900F01F00012303FA00F024
:10048C00014B43F82200704700E100E0430900F003
:10049C001F00012202FA00F02033024A42F8230026
:1004AC00704700BF00E100E00138B0F1807F0AD254
:1004BC00064B5860F021064A82F823100020986001
:1004CC0007221A6070470120704700BF10E000E05F
:1004DC0000ED00E0042805D1054A136843F004033D
:1004EC0013607047024A136823F0040313607047CB
:1004FC0010E000E0704700BF08B5FFF7FBFF08BD38
:10050C00F0B583B00023C2E001249C40224000F0EF
:10051C00BD804D68022D01D0122D10D1DE08083699
:10052C0050F826C003F00705AF000F25BD402CEA9C
:10053C00050E0D69BD404EEA050540F826500568CC
:10054C005F000326BE40F64305EA060E4D6805F033
:10055C000305BD404EEA050505604D6805F1FF3EFB
:10056C00BEF1010F03D9112D01D0122D10D18568C8
:10057C0006EA050ECD68BD404EEA05058560456866
:10058C0025EA04044D68C5F300159D4025434560DC
:10059C00C46826408C68BC403443C4604C6814F07A
:1005AC00805F73D03D4C256A45F001052562246AB5
:1005BC0004F001040194019C9E08B51C384C54F8BD
:1005CC00257003F00304A4000F25A54027EA0507B6
:1005DC00344DA84219D005F58065A84217D005F511
:1005EC008065A84215D005F58065A84213D005F5A5
:1005FC008065A84211D005F58065A8420FD005F59D
:10060C008065A8420DD106250CE000250AE00125E5
:10061C0008E0022506E0032504E0042502E0052598
:10062C0000E0072505FA04F43C4302361C4D45F85E
:10063C0026401D4C2568D44305EA04064F6817F480
:10064C00803F01D042EA0506174D2E606D6804EA22
:10065C0005064F6817F4003F01D042EA0506124D1B
:10066C006E60AD6804EA05064F6817F4801F01D070
:10067C0042EA05060C4DAE60ED682C404E6816F44F
:10068C00001F01D042EA0504074AD46001330A680E
:10069C0032FA03F47FF438AF03B0F0BD00380240F7
:1006AC0000000140000002400004014003691942AF
:1006BC0001D0012070470020704700BF0AB1816152
:1006CC007047090481617047436959404161704723
:1006DC0008B5044B5B69034203D0024B586102F02E
:1006EC009FFA08BD0004014003685A6912F4806F38
:1006FC000DD06FF480625A610423036400230363FA
:10070C00202280F83D2080F83C30012070470020EA
:10071C00704700BFF8B506460C4617461D4614E058
:10072C00B5F1FF3F11D02DB1FFF74CFE069BC01A5F
:10073C0085420AD200233363202286F83D2086F8B6
:10074C003E3086F83C300320F8BDC4F30743012B40
:10075C0008D133685B6924EA03039BB2B3FA83F3D1
:10076C005B0907E033689B6924EA03039BB2B3FA85
:10077C0083F35B09BB42D3D00020F8BDF8B5044627
:10078C000D4616461F4629E023685A6912F4806FFD
:10079C0012D01A6842F400721A6023686FF48062F7
:1007AC005A610423236400232363202284F83D2010
:1007BC0084F83C300120F8BDB6F1FF3F0ED026B1D5
:1007CC00FFF700FEC01B864208D2002323632022C1
:1007DC0084F83D2084F83C300320F8BDC5F3074372
:1007EC00012B08D123685B6925EA03039BB2003314
:1007FC0018BF012307E023689B6925EA03039BB21A
:10080C00003318BF0123002BBED10020F8BD00BF60
:10081C00F0B583B004460F4615461E46C36A042B3A
:10082C0006D0C36A012B03D0C36A13F5803F05D1F0
:10083C002268136843F48073136007E0036B122B78
:10084C0004D10268136843F48073136000962B463E
:10085C0000224FF001112046FFF75CFF58BB2369C3
:10086C00B3F5804F04D1236807F0FE071F6115E034
:10087C002268FB1103F0060343F0F00313613346C7
:10088C002A4611492046FFF779FF20B1236C042B2F
:10089C0013D1012314E02368FFB21F6133462A46AB
:1008AC000A492046FFF76AFF034648B1236C042B24
:1008BC0005D1012304E0032302E0032300E003231A
:1008CC00184603B0F0BD00BF080001000200010093
:1008DC0070B504460D46164619E02046FFF704FF96
:1008EC00E0B9B5F1FF3F12D025B1FFF76BFD801BCE
:1008FC0085420CD2236C43F0200323640023236332
:10090C00202284F83D2084F83C30032070BD2368FD
:10091C005B6913F0800FE0D0002070BD012070BD2A
:10092C002DE9F04184B005460E46174698460B9CBF
:10093C000268136843F4806313600268136843F41D
:10094C008073136000940A9B00224FF00111FFF793
:10095C00E1FE002874D12B68F6B206F0FE021A6193
:10096C0023460A9A3F492846FFF708FF20B12B6C13
:10097C00042B67D1012370E0002303932B685A6981
:10098C0003929B690393039B22460A992846FFF71F
:10099C009FFF48B12B6C042B56D12A68136843F483
:1009AC0000731360012358E0B8F1010F03D12B68D9
:1009BC00FFB21F6115E02B683A0A1A6122460A99A8
:1009CC002846FFF785FF48B12B6C042B3ED12A68D3
:1009DC00136843F40073136001233EE02B68FFB2ED
:1009EC001F6122460A992846FFF772FF48B12B6C0B
:1009FC00042B2DD12A68136843F400731360012370
:100A0C002BE02A68136843F48073136000940A9BEC
:100A1C0000224FF001112846FFF77CFED0B92B685D
:100A2C0046F001061E6123460A9A0E492846FFF736
:100A3C00A5FE034688B12B6C042B0DD101230CE0D1
:100A4C0003230AE0032308E0032306E0032304E066
:100A5C00032302E0032300E00323184604B0BDE89F
:100A6C00F08100BF0200010070B504460D46164629
:100A7C0019E02046FFF738FEE0B9B5F1FF3F12D080
:100A8C0025B1FFF79FFC801B85420CD2236C43F0F1
:100A9C002003236400232363202284F83D2084F860
:100AAC003C30032070BD23685B6913F0040FE0D069
:100ABC00002070BD012070BD70B505460C46164671
:100ACC0022E05A6912F0100F0CD06FF010025A612C
:100ADC0000232B642B63202285F83D2085F83C30C5
:100AEC00012070BD24B1FFF76DFC801B84420BD23A
:100AFC002B6C43F020032B64202385F83D3000231E
:100B0C0085F83C30032070BD2B685A6912F0400FF9
:100B1C00D7D0002070BD00BF002800F0A38070B5B6
:100B2C00044690F83D3013F0FF0F04D1002380F8F9
:100B3C003C3002F0D1F801F07FF84C4B984240F277
:100B4C009380242384F83D302268136823F001033A
:100B5C001360474BA3FB00239B0C21684A6822F0CF
:100B6C003F021A434A6025682A6A22F03F026668EF
:100B7C0040498E4201D8013308E04FF4967101FBD5
:100B8C0003F33D49A1FB03139B09013313432B6270
:100B9C002568EB6923F44F4323F0FF036268354962
:100BAC008A4208D85200B0FBF2F0C0F30B02032AC1
:100BBC002BD8042029E0A6684EB902EB4201B0FB09
:100BCC00F1F1C1F30B01B1FA81F149090AE002EB31
:100BDC00820101EB8101B0FBF1F1C1F30B01B1FA20
:100BEC0081F1490981B936B902EB4202B0FBF2F04E
:100BFC0040F4004009E002EB820202EB8202B0FBFF
:100C0C00F2F040F4404000E001201843E861216814
:100C1C000B6823F0C002E069236A034313430B60A3
:100C2C0021688B6823F4034222F0FF022069E368F9
:100C3C00034313438B602168CB6823F0FF02606988
:100C4C00A36903431343CB602268136843F0010389
:100C5C00136000202064202384F83D30206384F846
:100C6C003E0070BD01207047012070BD7F841E00C6
:100C7C0083DE1B43A0860100D34D62102DE9F041A9
:100C8C0084B004460D4690461F46FFF79BFB94F834
:100C9C003D30DBB2202B40F0A28006460090192399
:100CAC0001224FF002112046FFF734FD002840F0DE
:100CBC00988094F83C30012B00F09580012384F847
:100CCC003C3023681A6812F0010F03D11A6842F005
:100CDC0001021A602268136823F400631360212355
:100CEC0084F83D30102384F83E3000232364C4F88C
:100CFC0024806785A3F58033E362638D23853346B7
:100D0C000A9A29462046FFF783FD054660B1236CFD
:100D1C00042B04D1002384F83C30012568E0002327
:100D2C0084F83C30032563E00023039323685A695D
:100D3C0003929B690393039B40E032460A99204639
:100D4C00FFF7C6FD48B1236C042B4ED12268136803
:100D5C0043F40073136001254AE02268636A591C4E
:100D6C0061621B781361638D9BB2013B9BB26385FF
:100D7C00238D013B238523685A6912F0040F0DD093
:100D8C0067B1626A511C616212781A61638D9BB201
:100D9C00013B9BB26385238D013B238532460A9927
:100DAC002046FFF761FE48B1236C042B1FD122684B
:100DBC00136843F400731360012519E0238D002B95
:100DCC00BBD12268136843F400731360202384F8AA
:100DDC003D30002384F83E3084F83C3008E0022596
:100DEC0006E0022504E0022502E0032500E00325CD
:100DFC00284604B0BDE8F0812DE9F04387B00446E5
:100E0C000D4690469946BDF83C60FFF7DBFA94F826
:100E1C003D30DBB2202B40F0518107460E9B002B5E
:100E2C0000F04E81002E00F04D810090192301221C
:100E3C004FF002112046FFF76DFC002840F0448172
:100E4C0094F83C30012B00F04181012384F83C30B4
:100E5C0023681A6812F0010F03D11A6842F00102DC
:100E6C001A602268136823F400631360222384F849
:100E7C003D30402384F83E30002323640E9B636294
:100E8C0066859A4BE362638D23850197109B0093D3
:100E9C004B46424629462046FFF742FD054660B1C7
:100EAC00236C042B04D1002384F83C30012518E179
:100EBC00002384F83C30032513E1238D012B11D141
:100ECC002268136823F48063136000230393236860
:100EDC005A6903929A690392039A1A6842F400724F
:100EEC001A60DEE0022B12D12268136823F48063AF
:100EFC0013602268136843F40063136000230493A7
:100F0C0023685A6904929B690493049BC9E00023EB
:100F1C00059323685A6905929B690593059BC0E06C
:100F2C00032B00F29380012B1AD13A4610992046DC
:100F3C00FFF7C2FD28B1236C202B40F0C98003259C
:100F4C00CFE0636A5A1C6262226812691A70238DA0
:100F5C00013B2385638D9BB2013B9BB26385A0E073
:100F6C00022E2BD10097109B002261492046FFF7DF
:100F7C00D1FB002840F0AE802268136843F4007364
:100F8C001360636A5A1C6262226812691A70238D9C
:100F9C00013B2385638D9BB2013B9BB26385636AE6
:100FAC005A1C6262226812691A70238D013B2385D8
:100FBC00638D9BB2013B9BB2638572E00097109BE3
:100FCC0000224B492046FFF7A5FB002840F0848007
:100FDC002268136823F480631360636A5A1C62628C
:100FEC00226812691A70238D013B2385638D9BB295
:100FFC00013B9BB263850097109B00223C49204625
:10100C00FFF788FB002869D12268136843F400734A
:10101C001360636A5A1C6262226812691A70238D0B
:10102C00013B2385638D9BB2013B9BB26385636A55
:10103C005A1C6262226812691A70238D013B238547
:10104C00638D9BB2013B9BB263852AE03A461099B3
:10105C002046FFF731FD20B1236C202B40D1032516
:10106C003FE0636A5A1C6262226812691A70238D0F
:10107C00013B2385638D9BB2013B9BB26385236847
:10108C005A6912F0040F0CD0626A511C61621B6920
:10109C001370238D013B2385638D9BB2013B9BB267
:1010AC006385238D002B7FF43BAF202384F83D30E8
:1010BC00002384F83E3084F83C3012E0022510E026
:1010CC0001250EE001250CE002250AE0022508E0CE
:1010DC00012506E0032504E0032502E0032500E0DA
:1010EC000125284607B0BDE8F08300BF0000FFFFD4
:1010FC0004000100024B186800F4C050704700BF98
:10110C000070004030B583B0204B9B6813F0F00F9B
:10111C0020D105461D4B5B6A13F0805F02D0FFF7B0
:10112C00E9FF0FE0194C636A43F080536362636A12
:10113C0003F080530193019BFFF7DCFF636A23F0FC
:10114C0080536362B0F5C05F06D1B5F5404F05D052
:10115C00002104E0002102E0002100E0012121B186
:10116C000B4A136843F004031360094A136823F015
:10117C0001030B431360136803F00103994201D080
:10118C00012000E0002003B030BD00BF0038024059
:10119C00003C024070B582B00446036813F0010FA6
:1011AC0000F08E80B34B9B6803F00C03082B0AD025
:1011BC00B04B9B6803F00C030C2B1BD1AD4B9B6805
:1011CC0013F4803F16D04FF4003393FAA3F3A94BDA
:1011DC001A684FF4003393FAA3F3B3FA83F303F0D2
:1011EC001F0322FA03F313F0010F69D06368002B7D
:1011FC0066D170E36368012B05D19E4A136843F4F2
:10120C00803313601FE04BB99A4B1A6822F480327A
:10121C001A601A6822F480221A6014E0052B09D196
:10122C00944B1A6842F480221A601A6842F4803295
:10123C001A6008E08F4B1A6822F480321A601A6820
:10124C0022F480221A606368EBB1FFF7BBF8054605
:10125C0005E0FFF7B7F8401B642800F23E834FF41B
:10126C00003393FAA3F3834B1A684FF4003393FAC9
:10127C00A3F3B3FA83F303F01F0322FA03F313F07F
:10128C00010FE6D01CE0FFF79DF8054605E0FFF7DF
:10129C0099F8401B642800F222834FF4003393FA30
:1012AC00A3F3744B1A684FF4003393FAA3F3B3FA15
:1012BC0083F303F01F0322FA03F313F0010FE6D1BB
:1012CC00236813F0020F00F093806A4B9B6803F0C5
:1012DC000C03042B0AD0674B9B6803F00C030C2BFC
:1012EC0028D1644B9B6813F4803F23D1022393FADB
:1012FC00A3F3604B1A68022393FAA3F3B3FA83F3B4
:10130C0003F01F0322FA03F313F0010F03D0E36879
:10131C00012B40F0E6825748436823F4F8512369C7
:10132C004FF4F85292FAA2F2B2FA82F293400B43C3
:10133C0043605DE0E368A3B3012292FAA2F3B3FA2F
:10134C0083F39B0003F1844303F58E031A60FFF7CC
:10135C0039F8054605E0FFF735F8401B022800F286
:10136C00C282022393FAA3F3424B1A68022393FA24
:10137C00A3F3B3FA83F303F01F0322FA03F313F07E
:10138C00010FE8D03B48436823F4F85123694FF42C
:10139C00F85292FAA2F2B2FA82F293400B434360F3
:1013AC0026E0012393FAA3F3B3FA83F39B0003F132
:1013BC00844303F58E0300221A60FFF703F80546F9
:1013CC0005E0FEF7FFFF401B022800F28E8202238D
:1013DC0093FAA3F3274B1A68022393FAA3F3B3FAF5
:1013EC0083F303F01F0322FA03F313F0010FE8D188
:1013FC00236813F0100F00F0E4801E4B9B6813F071
:10140C000C0F72D14FF4007393FAA3F3194B1A68B3
:10141C004FF4007393FAA3F3B3FA83F303F01F03AF
:10142C0022FA03F313F0010F03D0A369002B00F091
:10143C005E82206A0F4B5B6803F4604398421BD9B1
:10144C00FFF760FE002840F054820A494B6823F4F1
:10145C006042236A13434B604B6823F07F40E3697F
:10146C004FF07F4292FAA2F2B2FA82F29340034317
:10147C004B601AE000380240B6494B6823F46043D5
:10148C00184348604B6823F07F40E3694FF07F427C
:10149C0092FAA2F2B2FA82F2934003434B60206AB2
:1014AC00FFF730FE002840F02682236A4FF460429A
:1014BC0092FAA2F2B2FA82F2D3405A1C4FF40043D1
:1014CC009340A44A926802F0F001F02292FAA2F240
:1014DC00B2FA82F221FA02F29F498A5CD3409F4A07
:1014EC0013600020FEF744FF6BE0A369002B3ED095
:1014FC004FF4807393FAA3F3B3FA83F39B0003F1D5
:10150C00844303F58E0301221A60FEF75BFF054648
:10151C0005E0FEF757FF401B022800F2EE814FF466
:10152C00007393FAA3F38B4B1A684FF4007393FA7E
:10153C00A3F3B3FA83F303F01F0322FA03F313F0BC
:10154C00010FE6D083494B6823F46042236A1343AE
:10155C004B604B6823F07F40E3694FF07F4292FA77
:10156C00A2F2B2FA82F2934003434B6029E04FF4AB
:10157C00807393FAA3F3B3FA83F39B0003F18443D0
:10158C0003F58E0300221A60FEF71CFF054605E0EA
:10159C00FEF718FF401B022800F2B1814FF40073D4
:1015AC0093FAA3F36B4B1A684FF4007393FAA3F3FB
:1015BC00B3FA83F303F01F0322FA03F313F0010FC2
:1015CC00E6D1236813F0080F47D0636913B30122E7
:1015DC0092FAA2F3B3FA83F3614941F82320FEF7A0
:1015EC00F1FE054605E0FEF7EDFE401B022800F279
:1015FC008881022393FAA3F2564A526B93FAA3F30F
:10160C00B3FA83F303F01F0322FA03F313F0010F71
:10161C00E9D022E0012393FAA3F3B3FA83F3002178
:10162C004F4A42F82310FEF7CDFE054605E0FEF7C3
:10163C00C9FE401B022800F26681022393FAA3F232
:10164C00444A526B93FAA3F3B3FA83F303F01F03E8
:10165C0022FA03F313F0010FE9D1236813F0040FFE
:10166C0000F0A1803B4B5B6A13F0805F0BD1394BD0
:10167C005A6A42F080525A625B6A03F080530193BB
:10168C00019B012500E00025364B1B6813F4807F7D
:10169C0013D1344A136843F480731360FEF792FE3F
:1016AC00064605E0FEF78EFE801B642800F22D81B5
:1016BC002C4B1B6813F4807FF4D0A368012B05D14D
:1016CC00244A536B43F4807353631FE04BB9214B93
:1016DC005A6B22F480725A635A6B22F480625A63FA
:1016EC0014E0052B09D11B4B5A6B42F480625A63F0
:1016FC005A6B42F480725A6308E0164B5A6B22F410
:10170C0080725A635A6B22F480625A63A368EBB1FD
:10171C00FEF758FE064607E0FEF754FE801B41F22A
:10172C008833984200F2F3804FF4007393FAA3F2DB
:10173C00084A526B93FAA3F3B3FA83F303F01F0333
:10174C0022FA03F313F0010FE6D026E0FEF73AFE7F
:10175C00064611E0003802407C3F00080C000020D7
:10176C008006474200700040FEF72CFE801B41F2C1
:10177C008833984200F2CD804FF4007393FAA3F2B1
:10178C006A4A526B93FAA3F3B3FA83F303F01F0381
:10179C0022FA03F313F0010FE6D125B1634A536A21
:1017AC0023F080535362636A002B00F0B4805F4ACD
:1017BC00926802F00C020C2A00F0AF80022B5FD171
:1017CC004FF0807393FAA3F3B3FA83F39B0003F106
:1017DC00844303F58E0300221A60FEF7F3FD0546E1
:1017EC0005E0FEF7EFFD401B022800F298804FF059
:1017FC00007393FAA3F34D4B1A684FF0007393FAEE
:10180C00A3F3B3FA83F303F01F0322FA03F313F0E9
:10181C00010FE6D14548836823F47D01A26AE36A8F
:10182C001343226B13430B4383604FF0807393FA83
:10183C00A3F3B3FA83F39B0003F1844303F58E0304
:10184C0001221A60FEF7BEFD044604E0FEF7BAFD65
:10185C00001B022865D84FF0007393FAA3F3334BA7
:10186C001A684FF0007393FAA3F3B3FA83F303F0FF
:10187C001F0322FA03F313F0010FE7D0002053E00B
:10188C004FF0807393FAA3F3B3FA83F39B0003F145
:10189C00844303F58E0300221A60FEF793FD044681
:1018AC0004E0FEF78FFD001B02283CD84FF00073BC
:1018BC0093FAA3F31D4B1A684FF0007393FAA3F33A
:1018CC00B3FA83F303F01F0322FA03F313F0010FAF
:1018DC00E7D1002028E0012026E0032024E00320AB
:1018EC0022E0012020E003201EE003201CE0012068
:1018FC001AE0012018E0012016E0032014E0032078
:10190C0012E0032010E003200EE003200CE0032083
:10191C000AE0032008E0002006E0012004E0032098
:10192C0002E0032000E0032002B070BD003802404A
:10193C00234B9B6803F00C02082A3ED00C2A03D0E0
:10194C00042A28D11F48704703F470114FF4701209
:10195C0092FAA2F2B2FA82F221FA02F21A49895CE4
:10196C0003F440034FF4400090FAA0F0B0FA80F07A
:10197C00C3400133124A926812F4803F05D01348D9
:10198C0000FB01F0B0FBF3F070470E4A02FB01F0D4
:10199C00B0FBF3F070470A4B586800F460434FF407
:1019AC00604090FAA0F0B0FA80F023FA00F0013019
:1019BC004FF4004303FA00F070470448704700BF2F
:1019CC00003802400024F400943F000800366E01F9
:1019DC0070B5924B1B6803F001038B4212D20129A4
:1019EC0004D18E4A136843F0040313608B4A1368C6
:1019FC0023F001030B431360136803F001039942B6
:101A0C0040F0F780036813F0020F06D0844CA368F3
:101A1C0023F0F00283681343A3600D460446036869
:101A2C0013F0010F00F09F804368022B13D14FF489
:101A3C00003292FAA2F27A4A11684FF4003292FA0A
:101A4C00A2F2B2FA82F202F01F0221FA02F212F0B2
:101A5C00010F3ED1CFE0032B13D14FF0007292FA5D
:101A6C00A2F26F4A11684FF0007292FAA2F2B2FA27
:101A7C0082F202F01F0221FA02F212F0010F28D1B9
:101A8C00BBE0012B11D1022292FAA2F2644A116836
:101A9C00022292FAA2F2B2FA82F202F01F0221FAA8
:101AAC0002F212F0010F14D1A9E04FF4007292FA75
:101ABC00A2F25B4A11684FF4007292FAA2F2B2FAE7
:101ACC0082F202F01F0221FA02F212F0010F00F072
:101ADC00988053498A6822F0030213438B60FEF707
:101AEC0071FC06466368022B0FD107E0FEF76AFC17
:101AFC00801B41F28833984200F28580484B9B68EA
:101B0C0003F00C03082BF1D12DE0032B0ED106E0D2
:101B1C00FEF758FC801B41F28833984275D8404B35
:101B2C009B6803F00C030C2BF2D11CE0012B15D19C
:101B3C0006E0FEF747FC801B41F28833984266D8DA
:101B4C00374B9B6803F00C03042BF2D10BE0FEF730
:101B5C0039FC801B41F2883398425AD8304B9B6831
:101B6C0013F00C0FF3D12D4B1B6803F001039D42B6
:101B7C0011D2012D04D1294A136843F004031360D8
:101B8C00264A136823F001032B431360136803F0F8
:101B9C0001039D423FD1236813F0040F06D0204966
:101BAC008B6823F4E062E36813438B60236813F0C3
:101BBC00080F07D01A4A936823F46053216943EA4B
:101BCC00C1039360FFF7B4FE154B9B6803F0F00262
:101BDC00F02393FAA3F3B3FA83F322FA03F3114A33
:101BEC00D35CD840104B18600020FEF7C1FB0020DE
:101BFC0070BD012070BD012070BD012070BD0120A1
:101C0C0070BD012070BD032070BD032070BD03208A
:101C1C0070BD032070BD012070BD00BF003C0240B0
:101C2C00003802407C3F00080C000020014B186873
:101C3C00704700BF0C00002008B5FFF7F7FF084BFA
:101C4C009B6803F4E0624FF4E06393FAA3F3B3FAF6
:101C5C0083F322FA03F3034AD35CD84008BD00BFD8
:101C6C00003802408C3F000808B5FFF7DFFF084B37
:101C7C009B6803F460524FF4605393FAA3F3B3FAE6
:101C8C0083F322FA03F3034AD35CD84008BD00BFA8
:101C9C00003802408C3F00082DE9F84304460168E7
:101CAC000B6923F44052C36813430B6181680369C9
:101CBC00194343691943C36919430068C26822F484
:101CCC00164323F00C030B43C36021684B6923F4C8
:101CDC004072A36913434B61E369B3F5004F40F0C5
:101CEC00B2802768AF4B9F4255D1FFF7BDFF00EB89
:101CFC00800000EB800065686D00B0FBF5F5AA4E26
:101D0C00A6FB05356D092D01FFF7AEFF00EB80003A
:101D1C0000EB800063685B00B0FBF3F9FFF7A4FFF6
:101D2C0000EB800000EB800063685B00B0FBF3F31A
:101D3C00A6FB03235B094FF0640808FB1393DB003D
:101D4C003233A6FB03235B095B0003F4F8731D44D9
:101D5C00FFF78AFF00EB800000EB800063685B00FC
:101D6C00B0FBF3F9FFF780FF00EB800000EB800085
:101D7C0063685B00B0FBF3F3A6FB03235B0908FB72
:101D8C001393DB003233A6FB0336C6F342163544FD
:101D9C00BD60BDE8F883FFF74FFF00EB800000EB60
:101DAC00800065686D00B0FBF5F57F4EA6FB053530
:101DBC006D092D01FFF740FF00EB800000EB800068
:101DCC0063685B00B0FBF3F9FFF736FF00EB8000B4
:101DDC0000EB800063685B00B0FBF3F3A6FB03230E
:101DEC005B094FF0640808FB1393DB003233A6FB4E
:101DFC0003235B095B0003F4F8731D44FFF71CFF1E
:101E0C0000EB800000EB800063685B00B0FBF3F933
:101E1C00FFF712FF00EB800000EB800063685B00B3
:101E2C00B0FBF3F3A6FB03235B0908FB13984FEA03
:101E3C00C80808F13208A6FB0836C6F3421635442A
:101E4C00BD60BDE8F8832668564B9E4254D1FFF71F
:101E5C000BFF00EB800000EB80006568AD00B0FB71
:101E6C00F5F5514FA7FB05356D092D01FFF7FCFE6C
:101E7C0000EB800000EB800063689B00B0FBF3F884
:101E8C00FFF7F2FE00EB800000EB800063689B0024
:101E9C00B0FBF3F3A7FB03235B094FF0640909FBC9
:101EAC0013831B013233A7FB03235B0903F0F003FD
:101EBC001D44FFF7D9FE00EB800000EB8000636847
:101ECC009B00B0FBF3F8FFF7CFFE00EB800000EBBC
:101EDC00800063689B00B0FBF3F3A7FB03235B0953
:101EEC0009FB13831B013233A7FB0323C3F34313F7
:101EFC001D44B560BDE8F883FFF79EFE00EB800043
:101F0C0000EB80006568AD00B0FBF5F5264FA7FB34
:101F1C0005356D092D01FFF78FFE00EB800000EBFE
:101F2C00800063689B00B0FBF3F8FFF785FE00EBC5
:101F3C00800000EB800063689B00B0FBF3F3A7FB11
:101F4C0003235B094FF0640909FB13831B01323334
:101F5C00A7FB03235B0903F0F0031D44FFF76CFEA2
:101F6C0000EB800000EB800063689B00B0FBF3F893
:101F7C00FFF762FE00EB800000EB800063689B00C3
:101F8C00B0FBF3F3A7FB03235B0909FB13831B01D2
:101F9C003233A7FB0323C3F343131D44B560BDE8E1
:101FAC00F88300BF003801401F85EB512DE9F0414B
:101FBC0005460E4690461C46FEF704FA0746B8F155
:101FCC00000F26D053E0B4F1FF3F22D024B1FEF72E
:101FDC00F9F9C01B84421CD22A68D36823F0800311
:101FEC00D3602A68D36823F02003D3602A68D368AF
:101FFC0023F48073D3602A68536923F0010353617F
:10200C00012385F83930002385F838300320BDE8EA
:10201C00F0812B681B6836EA0303D4D10020BDE89D
:10202C00F081B4F1FF3F22D024B1FEF7CBF9C01BF5
:10203C0084421CD22A68D36823F08003D3602A68B8
:10204C00D36823F02003D3602A68D36823F4807309
:10205C00D3602A68536923F001035361012385F887
:10206C003930002385F838300320BDE8F0812B6827
:10207C001B6836EA0303D4D00020BDE8F08100BF12
:10208C0058B310B5044690F8393013F0FF0F04D153
:10209C00002380F8383000F049FE022384F83930F0
:1020AC002268D36823F40053D3602046FFF7F4FD75
:1020BC002268136923F4904313612268536923F057
:1020CC002A0353612268D36843F40053D360002081
:1020DC00E063012384F8393010BD0120704700BF44
:1020EC0070B504460D461E4690F83930DBB2012B14
:1020FC0001D0222B5AD1002D5AD0002A5AD094F854
:10210C003830012B58D0012384F838300023E36396
:10211C0094F83930DBB2222B03D1322384F83930D6
:10212C0002E0122384F83930A284E28423E0013BDC
:10213C00E384A368B3F5805F12D13346002280217B
:10214C002046FFF733FF002838D122682B88C3F3D1
:10215C000803536023690BB902350CE001350AE022
:10216C003346002280212046FFF720FF40BB236826
:10217C002A785A600135E38C002BD8D133460022E3
:10218C0040212046FFF712FF0346D8B994F83920B6
:10219C00D2B2322A03D1222284F8392002E0012261
:1021AC0084F83920002284F838200CE002230AE05D
:1021BC00012308E0012306E0022304E0032302E0EC
:1021CC00032300E00323184670BD00BFFEE700BFE9
:1021DC0008B50D4B1B6813B90C4A0B4B1A600A4B14
:1021EC001A68C31C23F00303134409498B4206D914
:1021FC0001F0C8F90C2303604FF0FF3008BD024911
:10220C000B60104608BD00BF840000203C0200207B
:10221C0000BC002001230360014B0B60704700BF22
:10222C00040000200FB400B583B004AB53F8042BAA
:10223C0001938021064801F0E9F9002803DD0146ED
:10224C00034800F007F803B05DF804EB04B07047E6
:10225C008C0000204FF0FF30704700BF08B500F035
:10226C0087F8024B024A9A6008BD00BF00ED00E0FF
:10227C000000000808B500F09FF808BDF8B504464A
:10228C000D4617461E462648FFF7CCFF2168254809
:10229C00FFF7C8FF61682448FFF7C4FFA168234813
:1022AC00FFF7C0FFE1682248FFF7BCFF2169214816
:1022BC00FFF7B8FF61692048FFF7B4FFA1691F4819
:1022CC00FFF7B0FFE1691E48FFF7ACFF1D48FFF7B1
:1022DC00A9FF29461C48FFF7A5FF1C4CE16A1C48C6
:1022EC00FFF7A0FF216B1B48FFF79CFFE16B1A481F
:1022FC00FFF798FF15F0800F03D039461748FFF70A
:10230C0091FF15F4004F03D031461548FFF78AFFB3
:10231C001448FFF787FF06991348FFF783FFF8BDB2
:10232C00343E0008443E0008543E0008643E000859
:10233C00743E0008843E0008943E0008A43E000849
:10234C00B43E0008C43E0008D03E000800ED00E09A
:10235C00E03E0008F03E0008003F0008103F000877
:10236C00203F0008303F0008383F0008FEE700001F
:10237C000E4B1A6842F480721A6099680C4A0A4033
:10238C009A601A6822F0885222F001121A601A68B8
:10239C0022F480221A609A6822F47D029A6000224C
:1023AC00DA604FF00062034B9A60704700380240CD
:1023BC000CC0FF8800ED00E02B4B9B6803F00C0376
:1023CC000C2B3AD8DFE803F007393939133939398E
:1023DC00173939391B00244B5B68C3F34233013383
:1023EC004FF4004202FA03F3204A136030E0204A13
:1023FC001E4B1A602CE01E4A1C4B1A6028E01A4A2D
:10240C0091689368C1F383411A48405CC3F38153CC
:10241C000133926812F4803F07D1154901FB00F299
:10242C00B2FBF3F3114A136012E0114A02FB00F203
:10243C00B2FBF3F30D4A13600AE00B4B5B68C3F37A
:10244C00423301334FF4004202FA03F3074A13609C
:10245C00054B9B68C3F30313074AD15C034A13680B
:10246C00CB401360704700BF003802400C000020C6
:10247C0000127A00943F00087C3F0008014B186062
:10248C00704700BF1401002010B582B0064B1C68C9
:10249C004FF0FF3300930B46024650212046FEF7C7
:1024AC00EDFB02B010BD00BF1401002010B584B0CC
:1024BC00074B1C684FF0FF330293019200900123ED
:1024CC000A4650212046FEF797FC04B010BD00BF11
:1024DC0014010020124B1B7883421DD010B507222B
:1024EC00104B1A70012802D101225A7002E000220E
:1024FC000C4B5A700B4C02212046FFF7C5FF0721ED
:10250C00217001222046FFF7D1FF94F90020044BE3
:10251C001A70034B187810BD014B1878704700BF28
:10252C00100100201C0100202DE9F0410446002080
:10253C00FFF7D0FF354D3B21297001222846FFF7CC
:10254C00B5FF2B7813F0040F02D04FF0010801E017
:10255C004FF000082D4D1A21297006222846FFF74E
:10256C00A5FF95F901E095F900C04CEA0E2095F90C
:10257C00031095F9026046EA012795F9053095F9A3
:10258C00042042EA032584F818C084F819E0A676E2
:10259C00E17622776377B8F1000F1BD000F07AFD5B
:1025AC0000221B4B00F006FFC4E90001384600F086
:1025BC0071FD0022164B00F0FDFEC4E90401284613
:1025CC0000F068FD0022124B00F0F4FEC4E9020199
:1025DC00BDE8F08100F05EFD00220E4B00F0C0FD66
:1025EC00C4E90001384600F055FD0022094B00F00B
:1025FC00B7FDC4E90401284600F04CFD0022054B50
:10260C0000F0AEFDC4E90201BDE8F0811C01002020
:10261C0000208C400000B03F08B50020FFF75AFFA7
:10262C0004483B230370002343700221FFF72CFF67
:10263C0008BD00BF1C01002010B50020FFF74AFFA9
:10264C001F4C0021217007222046FFF72FFF237813
:10265C001C4A1370A02B03D101221B4B1A7002E0F1
:10266C000022194B1A70164B5B78184A1370FB2B0F
:10267C0004D1154A137843F002031370104B9B7866
:10268C00134A1370322B04D10F490A7842F004021A
:10269C000A700B4A92F903100E4A1170322B04D1B6
:1026AC00094A137843F008031370054B93F904108F
:1026BC00094A117093F90620084B1A8010BD00BF0F
:1026CC001C01002026010020110100200D0100201A
:1026DC000C01002018010020120100200E01002026
:1026EC0010B50020FFF7F6FE044C3D2121700122AD
:1026FC002046FFF7DBFE207810BD00BF1C01002038
:10270C0010B504460020FFF7E5FEFFF7E9FF24B102
:10271C00A4F10803042B21D80AE011483D230370CF
:10272C0044700221FFF7B0FE1320FDF751FE10BDDF
:10273C0050B10B483D230370002343700221FFF777
:10274C00A3FE1320FDF744FE05483D23037044709F
:10275C000221FFF799FE0720FDF73AFE10BD00BFDE
:10276C001C01002008B5FF22064B1A700020FFF751
:10277C00B1FEFFF761FFFFF74FFF0C20FFF7C0FF23
:10278C0008BD00BF1001002038B505460020FFF73A
:10279C00A1FE044C2570012229462046FFF786FE37
:1027AC00207838BD1C01002010B504460F20FFF71F
:1027BC00EBFF20700E20FFF7E7FF60701120FFF792
:1027CC00E3FFA0701020FFF7DFFFE0701320FFF78E
:1027DC00DBFF20711220FFF7D7FF607110BD00BF27
:1027EC00014B1878704700BF11010020F0B589B07B
:1027FC002F4BDA6942F00402DA61DA6902F0040262
:10280C000092009ADA6942F00102DA61DA6902F0A8
:10281C0001020192019ADA6942F00202DA61DB6983
:10282C0003F002030293029B224D00224FF400415D
:10283C002846FDF743FF4FF40057039700240494F8
:10284C000126059603A91C48FDF75AFE49F2E00340
:10285C00039304960594069403A92846FDF750FEAD
:10286C0032464FF487512846FDF728FF22464FF495
:10287C0000412846FDF722FF4FF4006303930F4BF2
:10288C000493059403A92846FDF73AFE22462146F7
:10289C002820FDF7BDFD2820FDF7ECFD03970494DF
:1028AC00059403A92846FDF72BFE09B0F0BD00BF27
:1028BC0000380240000002400008024000001110E5
:1028CC0030B58BB005460C46082946DC0023029334
:1028DC00049305930693CDF81B3041228DF8042008
:1028EC0054228DF8052024228DF8062044228DF8E0
:1028FC000720C0228DF8082014228DF80A203422DB
:10290C008DF80B2001228DF80C2032218DF80D1042
:10291C00D7218DF80E108DF80F2010218DF8111085
:10292C008DF8122020218DF813108DF81420082218
:10293C008DF8162007E003F11302E95C0AA80244A3
:10294C0002F8241C0133A342F5DB4FF0FF331B22AA
:10295C0001A92648FFF7C4FB45E0102943DC2322DC
:10296C00002101A800F01FFE41238DF804305423F0
:10297C008DF8053024238DF8063044238DF807306C
:10298C00C0238DF808301C238DF80A3034238DF8C1
:10299C000B3001238DF80C3032228DF80D20D7220C
:1029AC008DF80E208DF80F3010228DF811208DF837
:1029BC00123020218DF813108DF814308DF816205C
:1029CC00002307E003F11302E95C0AA8024402F8B1
:1029DC00241C0133A342F5DB4FF0FF33232201A962
:1029EC000248FFF77DFB0BB030BD00BFB0010020EB
:1029FC0038B568B9154C20212046FDF765FE4021FD
:102A0C002046FDF761FE80212046FDF75DFE38BDB6
:102A1C0005460E4C20212046FDF756FE402120464F
:102A2C00FDF752FE80212046FDF74EFE2846FDF7AD
:102A3C00CFFC20212046FDF747FE40212046FDF724
:102A4C0043FE80212046FDF73FFE38BD00000240CA
:102A5C00FEE700BF08B50B480B4B036042F2107346
:102A6C00436000238360C3604FF480420261436182
:102A7C008361C3610362FEF74FF808B1FFF7E8FF0B
:102A8C0008BD00BF380100200054004008B50A48BA
:102A9C000A4B03604FF4E133436000238360C3604F
:102AAC0003610C2242618361C361FFF7E9FA08B14B
:102ABC00FFF7CEFF08BD00BFB00100200038014079
:102ACC0000B593B01B4A136823F4C05343F400635E
:102ADC0013601023059301230B9300230C934FF4E5
:102AEC0020420D920E9305A8FEF754FB08B1FFF798
:102AFC00AFFF0F23009300210191029103910491E8
:102B0C006846FEF765FF08B1FFF7A2FFFFF78EF8E6
:102B1C00094BA3FB00308009FDF7C6FC0420FDF730
:102B2C00D9FC002211464FF0FF30FDF771FC13B0B9
:102B3C005DF804FB00700040D34D621030B585B0D9
:102B4C002820FDF7A3FCFDF729FCFFF7B9FFFFF7E1
:102B5C004DFEFFF77FFFFFF799FF2D48FFF78EFC27
:102B6C0040F6B830FDF734FCFFF7FCFD4FF47A70FB
:102B7C00FDF72EFC3220FFF73BFFFFF731FE0F284D
:102B8C0007D00A20FFF734FF40F6B830FDF720FCE1
:102B9C00F7E74FF400511F48FDF788FD0028F8D1E6
:102BAC004FF47A70FDF714FC1B4C2046FFF7BCFC6D
:102BBC001A4D2846FFF7F8FD2A238DF800302B78A4
:102BCC008DF801306B788DF80230AB788DF80330CE
:102BDC00EB788DF804302B798DF805306B798DF806
:102BEC000630A37E8DF80730E37E8DF80830237F06
:102BFC008DF80930637F8DF80A30237E8DF80B3009
:102C0C00637E8DF80C300D216846FFF759FEC0E746
:102C1C003801002000080240900100203002002002
:102C2C00B0F5006F05D1034A13785BB243F0010392
:102C3C00137070471000002000B585B0254B5A6A00
:102C4C0042F000425A625A6A02F000420192019A22
:102C5C001A6A42F001021A621A6A02F00102029226
:102C6C00029A5A6A42F080525A625B6A03F08053AD
:102C7C000393039B0320FDF7B9FB002211466FF071
:102C8C000B00FDF7C5FB002211466FF00A00FDF7A3
:102C9C00BFFB002211466FF00900FDF7B9FB0022C3
:102CAC0011466FF00400FDF7B3FB002211466FF0E4
:102CBC000300FDF7ADFB002211466FF00100FDF79C
:102CCC00A7FB002211464FF0FF30FDF7A1FB05B02A
:102CDC005DF804FB003802400268114B9A421DD18A
:102CEC0000B587B0C02301931223029301230393F1
:102CFC0003230493042305930DEB03010948FDF70B
:102D0C00FFFB094B5A6A42F400125A625B6A03F4E5
:102D1C0000130093009B07B05DF804FB704700BFE5
:102D2C0000540040000402400038024000B589B055
:102D3C0003681D4A934219D11C4B1A6A42F4804213
:102D4C001A621B6A03F480430193019B4FF4C06326
:102D5C000393022304930123059303230693072370
:102D6C00079303A91248FDF7CBFB1AE0114A9342D3
:102D7C0017D10E4B5A6A42F400325A625B6A03F462
:102D8C0000330293029B0C2303930223049301232D
:102D9C000593032306930723079303A90448FDF720
:102DAC00AFFB09B05DF804FB00380140003802406D
:102DBC000000024000440040704700BFFEE700BF27
:102DCC00FEE700BFFEE700BFFEE700BF704700BF95
:102DDC00704700BF704700BF08B5FDF7EBFAFDF771
:102DEC008BFB08BD08B54FF40060FDF771FC08BD06
:102DFC0081F0004102E000BF83F0004330B54FEAA0
:102E0C0041044FEA430594EA050F08BF90EA020F0C
:102E1C001FBF54EA000C55EA020C7FEA645C7FEA9F
:102E2C00655C00F0E2804FEA5454D4EB5555B8BFC2
:102E3C006D420CDD2C4480EA020281EA030382EA33
:102E4C00000083EA010180EA020281EA0303362DC5
:102E5C0088BF30BD11F0004F4FEA01314FF4801C98
:102E6C004CEA113102D0404261EB410113F0004FAA
:102E7C004FEA03334CEA133302D0524263EB430361
:102E8C0094EA050F00F0A780A4F10104D5F1200EFF
:102E9C000DDB02FA0EFC22FA05F2801841F100015A
:102EAC0003FA0EF2801843FA05F359410EE0A5F12E
:102EBC0020050EF1200E012A03FA0EFC28BF4CF05F
:102ECC00020C43FA05F3C01851EBE37101F0004515
:102EDC0007D54FF0000EDCF1000C7EEB00006EEB22
:102EEC000101B1F5801F1BD3B1F5001F0CD34908AC
:102EFC005FEA30004FEA3C0C04F101044FEA445203
:102F0C0012F5800F80F09A80BCF1004F08BF5FEA89
:102F1C00500C50F1000041EB045141EA050130BD69
:102F2C005FEA4C0C404141EB010111F4801FA4F10C
:102F3C000104E9D191F0000F04BF01460020B1FA61
:102F4C0081F308BF2033A3F10B03B3F120020CDA99
:102F5C000C3208DD02F1140CC2F10C0201FA0CF077
:102F6C0021FA02F10CE002F11402D8BFC2F1200CDC
:102F7C0001FA02F120FA0CFCDCBF41EA0C01904092
:102F8C00E41AA2BF01EB0451294330BD6FEA0404DB
:102F9C001F3C1CDA0C340EDC04F11404C4F12002C6
:102FAC0020FA04F001FA02F340EA030021FA04F3D8
:102FBC0045EA030130BDC4F10C04C4F1200220FA2F
:102FCC0002F001FA04F340EA0300294630BD21FA6D
:102FDC0004F0294630BD94F0000F83F4801306BF33
:102FEC0081F480110134013D4EE77FEA645C18BF27
:102FFC007FEA655C29D094EA050F08BF90EA020FBE
:10300C0005D054EA000C04BF1946104630BD91EAB5
:10301C00030F1EBF0021002030BD5FEA545C05D1B8
:10302C004000494128BF41F0004130BD14F58004F7
:10303C003CBF01F5801130BD01F0004545F0FE416B
:10304C0041F470014FF0000030BD7FEA645C1ABFA0
:10305C00194610467FEA655C1CBF0B46024650EAD7
:10306C00013406BF52EA033591EA030F41F4002103
:10307C0030BD00BF90F0000F04BF0021704730B589
:10308C004FF4806404F132044FF000054FF000015E
:10309C0050E700BF90F0000F04BF0021704730B51F
:1030AC004FF4806404F1320410F0004548BF4042F4
:1030BC004FF000013EE700BF42004FEAE2014FEA49
:1030CC0031014FEA02701FBF12F07F4393F07F4F24
:1030DC0081F06051704792F0000F14BF93F07F4F56
:1030EC00704730B54FF4607401F0004521F0004199
:1030FC0020E700BF50EA010208BF704730B54FF01F
:10310C0000050AE050EA010208BF704730B511F023
:10311C00004502D5404261EB41014FF4806404F15B
:10312C0032045FEA915C3FF4DCAE4FF003025FEADD
:10313C00DC0C18BF03325FEADC0C18BF033202EB65
:10314C00DC02C2F1200300FA03FC20FA02F001FABF
:10315C0003FE40EA0E0021FA02F11444C1E600BF5E
:10316C0070B54FF0FF0C4CF4E06C1CEA11541DBF11
:10317C001CEA135594EA0C0F95EA0C0F00F0DEF8DC
:10318C002C4481EA030621EA4C5123EA4C5350EAC1
:10319C00013518BF52EA033541F4801143F4801312
:1031AC0038D0A0FB02CE4FF00005E1FB02E506F0A3
:1031BC000042E0FB03E54FF00006E1FB03569CF0F8
:1031CC00000F18BF4EF0010EA4F1FF04B6F5007FFE
:1031DC0064F5407404D25FEA4E0E6D4146EB060670
:1031EC0042EAC62141EA55514FEAC52040EA5E50F9
:1031FC004FEACE2EB4F1FD0C88BFBCF5E06F1ED8A3
:10320C00BEF1004F08BF5FEA500E50F1000041EBD9
:10321C00045170BD06F0004646EA010140EA020086
:10322C0081EA0301B4EB5C04C2BFD4EB0C0541EAA8
:10323C00045170BD41F480114FF0000E013C00F3BD
:10324C00AB8014F1360FDEBF002001F0004170BDE1
:10325C00C4F10004203C35DA0C341BDC04F11404FA
:10326C00C4F1200500FA05F320FA04F001FA05F286
:10327C0040EA020001F0004221F0004110EBD37053
:10328C0021FA04F642EB06015EEA430E08BF20EA7F
:10329C00D37070BDC4F10C04C4F1200500FA04F322
:1032AC0020FA05F001FA04F240EA020001F00041B4
:1032BC0010EBD37041F100015EEA430E08BF20EA27
:1032CC00D37070BDC4F1200500FA05F24EEA020E6F
:1032DC0020FA04F301FA05F243EA020321FA04F09E
:1032EC0001F0004121FA04F220EA020000EBD37055
:1032FC005EEA430E08BF20EAD37070BD94F0000F55
:10330C000FD101F00046400041EB010111F4801F88
:10331C0008BF013CF7D041EA060195F0000F18BF39
:10332C00704703F00046520043EB030313F4801F75
:10333C0008BF013DF7D043EA0603704794EA0C0F2F
:10334C000CEA135518BF95EA0C0F0CD050EA410645
:10335C0018BF52EA4306D1D181EA030101F00041C2
:10336C004FF0000070BD50EA410606BF10461946EA
:10337C0052EA430619D094EA0C0F02D150EA0136F6
:10338C0013D195EA0C0F05D152EA03361CBF104637
:10339C0019460AD181EA030101F0004141F0FE41D6
:1033AC0041F470014FF0000070BD41F0FE4141F45A
:1033BC00780170BD70B54FF0FF0C4CF4E06C1CEA5A
:1033CC0011541DBF1CEA135594EA0C0F95EA0C0F0F
:1033DC0000F0A7F8A4EB050481EA030E52EA0335CA
:1033EC004FEA013100F088804FEA03334FF08055EB
:1033FC0045EA131343EA12634FEA022245EA111518
:10340C0045EA10654FEA00260EF000419D4208BFC8
:10341C00964244F1FD0404F5407402D25B084FEA75
:10342C003202B61A65EB03055B084FEA32024FF421
:10343C0080104FF4002CB6EB020E75EB030E22BF7E
:10344C00B61A754640EA0C005B084FEA3202B6EB3E
:10345C00020E75EB030E22BFB61A754640EA5C00ED
:10346C005B084FEA3202B6EB020E75EB030E22BF7D
:10347C00B61A754640EA9C005B084FEA3202B6EB7E
:10348C00020E75EB030E22BFB61A754640EADC003D
:10349C0055EA060E18D04FEA051545EA16754FEA9F
:1034AC0006164FEAC30343EA52734FEAC2025FEABD
:1034BC001C1CC0D111F4801F0BD141EA00014FF04C
:1034CC0000004FF0004CB6E711F4801F04BF01431D
:1034DC000020B4F1FD0C88BFBCF5E06F3FF6AFAE39
:1034EC00B5EB030C04BFB6EB020C5FEA500C50F1C9
:1034FC00000041EB045170BD0EF0004E4EEA11314C
:10350C0014EB5C04C2BFD4EB0C0541EA045170BD52
:10351C0041F480114FF0000E013C90E645EA060E96
:10352C008DE60CEA135594EA0C0F08BF95EA0C0FC4
:10353C003FF43BAF94EA0C0F0AD150EA01347FF40C
:10354C0034AF95EA0C0F7FF425AF104619462CE7E3
:10355C0095EA0C0F06D152EA03353FF4FDAE104646
:10356C00194622E750EA410618BF52EA43067FF497
:10357C00C5AE50EA41047FF40DAF52EA43057FF427
:10358C00EBAE12E7014B1868704700BF74000020C7
:10359C0010B5431E0A44914204D011F8014B03F8B4
:1035AC00014FF8E710BD03460244934202D003F8E2
:1035BC00011BFAE7704730B5141E05469BB0184640
:1035CC0004DA8B232B604FF0FF301DE04FF40273B5
:1035DC00ADF80C300CBF234604F1FF330293059376
:1035EC004FF6FF7300910491ADF80E3002461E9B0E
:1035FC006946284600F072F8431CBCBF8B232B6035
:10360C0014B1009B00221A701BB030BD07B500939B
:10361C0013460A46014603480068FFF7CCFF03B087
:10362C005DF804FB740000202DE9F0478E6882469B
:10363C009E420C46914698463ED88A8912F4906F69
:10364C003AD02568096902236F1A656905EB4505AF
:10365C0095FBF3F57B1C43449D4238BF1D46530537
:10366C000FD5294600F040FB064698B13A46216931
:10367C00FFF78EFFA38923F4906343F08003A381AB
:10368C0013E02A4600F08EFB064670B921695046BD
:10369C0000F0DEFA0C23CAF80030A3894FF0FF309B
:1036AC0043F04003A381BDE8F08726613E442660C9
:1036BC0046466561ED1BA560464528BF4646494612
:1036CC003246206800F0A8FAA36800209B1BA36078
:1036DC0023681E442660BDE8F08700002DE9F04FFA
:1036EC009DB003938B8980461C060D4616460DD55E
:1036FC000B695BB9402100F0F7FA2860286118B912
:10370C000C23C8F80030CDE040236B6100230993F3
:10371C0020238DF82930DFF89CB130238DF82A3026
:10372C0037463C4614F8013B1BB9B7EB060910D0E1
:10373C0003E0252BF9D02746F3E74B4632462946C2
:10374C004046FFF771FF013000F0A780099B4B4406
:10375C0009933B78002B00F0A08000234FF0FF3240
:10376C0004930793059206938DF853301A93012610
:10377C00052221784E4800F041FA671C049B38B1B1
:10378C004B4A3C46801A06FA00F018430490EFE7C7
:10379C00D90644BF20228DF853201A0744BF2B2290
:1037AC008DF8532022782A2A03D0079A00210A2068
:1037BC000BE0039A111D12680391002A10DA524291
:1037CC0043F00200079204900BE027463B7801344B
:1037DC00303B092B03D800FB02320121F5E701B184
:1037EC0007923B782E2B1ED17B782A2B0AD1039B78
:1037FC0002371A1D1B680392002BB8BF4FF0FF3322
:10380C00059310E0002319460593781C0A240746FB
:10381C003A780130303A092A03D804FB01210123FC
:10382C00F5E703B1059103223978224800F0E6F957
:10383C0040B14023CBEB000003FA00F0049B0137AE
:10384C0018430490397806221B487E1C8DF82810EA
:10385C0000F0D4F988B1194B33B9039B073323F02B
:10386C0007030833039314E003AB00932A46144B6D
:10387C0004A94046AFF3008007E003AB00932A464F
:10388C000F4B04A9404600F093F8B0F1FF3F82467D
:10389C0003D0099B5344099342E7AB895B0601D4DF
:1038AC00099801E04FF0FF301DB0BDE8F08F00BF6C
:1038BC009D3F0008A33F0008A73F00080000000040
:1038CC00353600082DE9F04791461F460A698B688A
:1038DC0006469342B8BF1346C9F8003091F843200E
:1038EC000C46DDF8208012B10133C9F80030236892
:1038FC00990642BFD9F800300233C9F80030256868
:10390C0015F0060510D104F1190A07E001235246FF
:10391C0039463046C04701301AD00135E368D9F832
:10392C0000209B1A9D42F1DB94F84330226800334F
:10393C0018BF012392060FD5E118302081F84300FF
:10394C005A1C94F845102244023382F8431003E0C9
:10395C004FF0FF30BDE8F08704F1430239463046A2
:10396C00C0470130F4D02268D9F80050E36802F067
:10397C000602042A08BF5D1B2269A3680CBF25EA56
:10398C00E57500259342C4BF9B1AED184FF0000952
:10399C001A344D4509D00123224639463046C047DA
:1039AC000130D5D009F10109F3E70020BDE8F0871B
:1039BC002DE9F04317460A7E85B06E2A98460646D6
:1039CC000C460C9B01F1430E00F0AE8011D8632A1B
:1039DC0022D009D8002A00F0BB80582A40F0CA80B7
:1039EC0081F84520834955E0642A1ED0692A1CD0F1
:1039FC00C0E0732A00F0B08009D86F2A2ED0702A4C
:103A0C0040F0B8800A6842F020020A603EE0752A55
:103A1C0024D0782A3AD0ADE01A6801F14205111D84
:103A2C001960136884F84230A8E021681A6811F014
:103A3C00800F02D0111D196008E011F0400F02F147
:103A4C000401196002D0B2F9003000E01368002BB9
:103A5C003CDA2D225B4284F8432037E021681A6857
:103A6C0011F0800F02D0111D196007E011F0400F0A
:103A7C0002F10401196001D0138800E01368227E62
:103A8C005C496F2A14BF0A2208221BE078225A498B
:103A9C0084F845202268186812F0800F00F10405A4
:103AAC001D6003D1550601D5038800E00368D007DB
:103ABC0044BF42F0200222601BB9226822F020028F
:103ACC0022601022002084F8430001E049490A22B8
:103ADC006568002DA56008DB206820F004002060DC
:103AEC002BB9002D7DD175460CE0002B79D0754695
:103AFC00B3FBF2F002FB1033CB5C05F8013D03463F
:103B0C000028F5D1082A0BD12368DA0708D52369D8
:103B1C0062689A42DEBF302305F8013C05F1FF359F
:103B2C00C5EB0E0323612EE008681A6810F0800FB5
:103B3C00496903D0101D1860136808E010F0400F9D
:103B4C0002F104001860136801D0198000E01960BC
:103B5C0000232361754616E01A68111D196015685B
:103B6C0000216268284600F049F808B1401B6060EB
:103B7C00636804E004F1420584F8422001232361C8
:103B8C00002384F84330CDF800803B4603AA21463D
:103B9C003046FFF797FE013002D14FF0FF3026E0A0
:103BAC0023692A4639463046C0470130F5D0236890
:103BBC009B0710D5002504F1190907E001234A469B
:103BCC0039463046C0470130E7D00135E368039AE7
:103BDC009B1A9D42F2DBE068039B9842B8BF1846E3
:103BEC0005E00B7804F1420584F842308AE705B011
:103BFC00BDE8F083AE3F0008BF3F000810B5C9B266
:103C0C0002449042034605D01C7801308C42F8D116
:103C1C00184610BD002010BD884210B501EB020300
:103C2C0001D8421E0BE09842FBD28118D21AD34223
:103C3C0004D013F8014D01F8014DF8E710BD99427D
:103C4C0004D011F8014B02F8014FF8E710BD000049
:103C5C0038B50546002944D051F8043C0C1F002B04
:103C6C00B8BFE41800F0D4F81E4A1368114613B913
:103C7C006360146030E0A3420DD92268A01883421F
:103C8C0001BF18685B681218226063600C6023E047
:103C9C00A24203D813465A68002AF9D11868191899
:103CAC00A1420BD12168014458188242196013D1EA
:103CBC0010685268014419605A600DE002D90C2357
:103CCC002B6009E021686018824201BF10685268BD
:103CDC000918216062605C602846BDE8384000F03D
:103CEC0098B838BD2C01002070B5CD1C25F003050B
:103CFC0008350C2D38BF0C25002D064601DBA942DA
:103D0C0002D90C23336046E000F082F8234B1C6888
:103D1C001A462146A1B10B685B1B0ED40B2B03D9A1
:103D2C000B60CC18CD501EE08C420BBF63684B6807
:103D3C001360636018BF0C4615E00C464968E9E750
:103D4C00174C23681BB9304600F052F82060294606
:103D5C00304600F04DF8431C18D0C41C24F003046A
:103D6C00A0420DD12560304600F053F804F10B0051
:103D7C00231D20F00700C31A0ED05A42E25070BD2A
:103D8C00211A304600F034F80130EBD10C233360AB
:103D9C00304600F03EF8002070BD00BF2C01002022
:103DAC0028010020F8B5074615460E4621B91146E4
:103DBC00BDE8F840FFF798BF1AB9FFF749FF28464E
:103DCC00F8BD00F027F885420ED929463846FFF792
:103DDC008BFF044650B131462A46FFF7D9FB3146DA
:103DEC003846FFF735FF01E03046F8BD2046F8BDF8
:103DFC0038B5064C0023054608462360FEF7E8F963
:103E0C00431C02D1236803B12B6038BD3401002060
:103E1C007047704751F8040C0028BEBF091851F8C0
:103E2C00043CC01804387047537461636B2066728D
:103E3C00616D653A0A000000205230203D2020259B
:103E4C003038580A00000000205231203D20202537
:103E5C003038580A00000000205232203D20202526
:103E6C003038580A00000000205233203D20202515
:103E7C003038580A0000000020523132203D2025F5
:103E8C003038580A00000000204C52203D202025DC
:103E9C003038580A00000000205043203D202025D7
:103EAC003038580A0000000020505352203D202585
:103EBC003038580A000000004653522F4641523AFF
:103ECC000A0000002043465352203D202025303864
:103EDC00580A00002048465352203D2020253038F7
:103EEC00580A00002044465352203D2020253038EB
:103EFC00580A00002041465352203D2020253038DE
:103F0C00580A0000204D4D464152203D20253038A6
:103F1C00580A00002042464152203D2020253038CE
:103F2C00580A00004D6973630A000000204C522FA0
:103F3C004558435F52455455524E3D202530385814
:103F4C000A0000005B486172644661756C745D0A1E
:103F5C00000000005B4275734661756C745D0A006D
:103F6C005B55736167654661756C745D0A00000092
:103F7C00000000000000000001020304060708090D
:103F8C000000000001020304030406080C101820B2
:103F9C0030232D302B2000686C4C0065666745463D
:103FAC0047003031323334353637383941424344A7
:103FBC004546003031323334353637383961626337
:043FCC0064656600C2
:103FD00078563412880000200000000068FF1F009F
:103FE00001FFFFFF000000000000000000000000D3
:103FF00000000000000000000000000000000000C1
:1040000000000000000000000000000000000000B0
:1040100000000000000000000000000000000000A0
:104020000000000000000000000000000000000090
:104030000000000000000000000000000000000080
:0C404000000000001400002032547698AC
:040000050800013DB1
:00000001FF
